:060000000A128A110C280F
:10000800FE000308F0000A08F1000A128A114A2EBD
:100018000A128A11702D00303A220A128A11013010
:100028003A2AF8003A220A128A110A30F2007708AE
:100038006C220A128A11A3220A128A1100270A12B4
:100048008A1127210A128A110A30F20077088722BA
:100058000A128A11A3220A128A1100270A128A1187
:100068002729F8003A220A128A110A30F200770882
:100078006C220A128A11A3220A128A1100270A1274
:100088008A1127210A128A110A30F200770887227A
:100098000A128A11A3220A128A1100270A128A1147
:1000A8002729F8003A220A128A110A30F200770842
:1000B8006C220A128A11A3220A128A1100270A1234
:1000C8008A1127210A128A110A30F200770887223A
:1000D8000A128A11A3220A128A1100270A128A1107
:1000E8002729E4003A220A128A11E830DA0003309C
:1000F800DB006308DD006208DC0040210A128A1177
:100108005A08A3220A128A1100270A128A112721E3
:100118000A128A116430DA00DB01AA220A128A1153
:10012800EA200A128A117308DD007208DC004021F7
:100138000A128A115A08A3220A128A1100270A12DF
:100148008A1127210A128A110A30DA00DB01AA2251
:100158000A128A11EA200A128A11B3220A128A1193
:10016800EA200A128A117308DD007208DC004021B7
:100178000A128A115A08A3220A128A1100270A129F
:100188008A1127210A128A11AA220A128A11EA2040
:100198000A128A11B3220A128A11EA200A128A1153
:1001A8007308E6007208E5000A30F200F3016608F9
:1001B800F5006508F400EA200A128A117208A322E1
:1001C8000A128A1100270A128A112729F701F51F36
:1001D800F428F409F509F40A0319F50AF701F70AEE
:1001E800F31FFB28F209F309F20A0319F30A73084B
:1001F800720403191A29F601F60AF31B07290310DA
:10020800F20DF30D002973087502031D0D297208FC
:100218007402031C16297208F4027308031CF50300
:10022800F5020310F30CF20CF60B072977080319F3
:100238002229F409F509F40A0319F50A7508F300E7
:100248007408F2000800F600760E0F39F5000F303A
:10025800F5057608F4000F30F405081575088521B2
:100268000A128A119F210A128A11740885210A121A
:100278008A119F2108110800DF01DB1F4A29DA09CA
:10028800DB09DA0A0319DB0ADF01DF0ADD1F53295C
:10029800DC09DD09DC0A0319DD0A0130DF06E001AB
:1002A800E1015B085A0403197829DE01DE0ADB1B29
:1002B80061290310DA0DDB0D5A290310E00DE10D59
:1002C8005B085D02031D6A295A085C02031C742935
:1002D8005A08DC025B08031CDD03DD02601403100E
:1002E800DB0CDA0CDE0B61295F0803198029E009B1
:1002F800E109E00A0319E10A6108DB006008DA0095
:100308000800F200721C8C298312031308168F2927
:10031800831203130812F21C932988169429881251
:10032800721D9829081799290813F21D9D29881705
:1003380008008813080088151A30F300F830F20016
:10034800F20BA429F30BA429640083120313881168
:10035800080080303A220A128A112530F7008830C6
:10036800F80050220A128A11C0303A220A128A1161
:100378000130F7008830F80050220A128A117F30C5
:10038800DC005630DB008430DA00DA0BC929DB0BDD
:10039800C929DC0BC929D02901303A220A128A114D
:1003A8000D30DC00A330DB00BD30DA00DA0BDA29CF
:1003B800DB0BDA29DC0BDA29640080303A220A12D6
:1003C8008A111330F7008830F80050220A128A1177
:1003D800C0303A220A128A11EF30F7008730F8004D
:1003E800502A003085210A128A118230F800DD3047
:1003F800F700F70BFD29F80BFD29022A03303A22F2
:100408000A128A112130F8007630F700F70B0A2A11
:10041800F80B0A2A640003303A220A128A1148307B
:10042800F8006C30F700F70B172AF80B172A64004E
:1004380003303A220A128A1102303A220A128A1129
:1004480002303A220A128A1128303A220A128A11F4
:1004580000303A220A128A110C303A220A128A1102
:1004680000303A220A128A1106303A2AF600760E2D
:100478000F39F5000F30F5057608F4000F30F40554
:10048800750885210A128A119F210A128A11740897
:1004980085210A128A119F297808FF0077088400AD
:1004A8000A128A1100270A128A1100380319080053
:1004B8007808FF00770884000A128A1100270A12B8
:1004C8008A1127210A128A11F70A0319F80A502AF1
:1004D800F300F50172080319852AF401F40AF21BE6
:1004E800782A0310F20D722A0310F50D72087302B0
:1004F800031C822A7208F30275140310F20CF40B21
:10050800782A75080800F4000830F500F601740828
:10051800F30007300310F30CFF3E0310031D8F2A6E
:10052800760D7304F6000310F40D72087602031CAE
:100538009F2A7208F602F50B8B2A76080800123EED
:10054800840087300318013EFF0008006308F500A7
:100558006208F400E830F2000330F3000800730882
:10056800F5007208F4006430F200F3010800831605
:100578000317880189010130031388008312880159
:100588000F3083168700831287010A128A112426E6
:100598000A128A110A128A11F5210A128A110A12FC
:1005A8008A11A6240A128A110A128A1134260A12FA
:1005B8008A110A128A11AD210A128A110A128A11A5
:1005C8000F200A128A110718F62A0630E9000E30A1
:1005D800E800B030E700E70BEF2AE80BEF2AE90B59
:1005E800EF2A79100A128A11C8250A128A11403096
:1005F800F20031300A128A1106260A128A1173088B
:100608007204031D0C2B83120313A001A00A2C2BC8
:100618004D30F20031300A128A1106260A128A1168
:1006280073087204031D1A2B0230292BA030F20024
:1006380031300A128A1106260A128A1173087204C6
:10064800031D282B0330292B083083120313A00025
:10065800A101972C0A128A11C0240A128A1180302B
:100668000A128A113A220A128A117130F700873069
:10067800F8000A128A1150220A128A112308E3008C
:100688002208E2008D300A128A1175200A128A1196
:10069800C0300A128A113A220A128A113230F7003F
:1006A8008730F8000A128A1150220A128A117A0831
:1006B800F700C5300A128A1135200A128A119430BF
:1006C8000A128A113A220A128A115C30F70087301E
:1006D800F8000A128A1150220A128A112908F70012
:1006E8009A300A128A1155200A128A11D4300A1235
:1006F8008A113A220A128A11B030F7008730F800BE
:100708000A128A1150220A128A112808F700DD30CD
:100718000A128A1115200A128A11E72A0A128A1166
:10072800C0240A128A1180300A128A113A220A1247
:100738008A118630F7008730F8000A128A11502291
:100748000A128A112508E3002408E2008D300A12F3
:100758008A1175200A128A11C0300A128A113A22A7
:100768000A128A113230F7008730F8000A128A110B
:1007780050220A128A112B08F700C5300A128A1172
:1007880035200A128A1194300A128A113A220A1262
:100798008A115C30F7008730F8000A128A1150225B
:1007A8000A128A112C08F7009A300A128A11552069
:1007B8000A128A11D4300A128A113A220A128A11AC
:1007C800B030F7008730F8000A128A1150220A1256
:1007D8008A112A08F700DD300A128A1115200A1238
:1007E8008A11E72A0A128A11C0240A128A11803053
:1007F8000A128A113A220A128A119B30F7008730AE
:10080800F8000A128A1150220A128A112708E300F6
:100818002608E2008D300A128A1175200A128A1100
:10082800C0300A128A113A220A128A113230F700AD
:100838008730F8000A128A1150220A128A112E08EB
:10084800F700C5300A128A1135200A128A1194302D
:100858000A128A113A220A128A115C30F70087308C
:10086800F8000A128A1150220A128A112F08F7007A
:100878009A300A128A1155200A128A11D4300A12A3
:100888008A113A220A128A11B030F7008730F8002C
:100898000A128A1150220A128A112D08F700DD3037
:1008A8000A128A1115200A128A11E72A80300A12C0
:1008B8008A113A220A128A11DA30F7008730F800D2
:1008C8000A128A1150220A128A11C0300A128A1199
:1008D8003A220A128A11C530F7008730F8000A1246
:1008E8008A1150220A128A1194300A128A113A2265
:1008F8000A128A114730F7008730F8000A128A1165
:1009080050220A128A11D4300A128A113A220A1283
:100918008A111D30F7008730F8000A128A11502218
:100928000A128A11E72A2108003A031D5A2C2008C6
:10093800013A03192E2B033A0319922B013A031992
:10094800F62B5A2C003036250A128A116A250A120B
:100958008A114E250A128A11013036250A128A1187
:10096800023036250A128A116A250A128A114E2582
:100978000A128A110330362D003036250A128A11E0
:100988006A250A128A114E250A128A117608A300CE
:100998007508A200013036250A128A110313A2072E
:1009A8000318A30A083036250A128A116A250A1282
:1009B8008A114E250A128A117608A5007508A40026
:1009C8000F3036250A128A110313A4070318A50A43
:1009D800103036250A128A116A250A128A114E2504
:1009E8000A128A117608A7007508A600173036255E
:1009F8000A128A110313A6070318A70A023036251C
:100A08000A128A11FA000A3036250A128A110313CB
:100A1800AB00123036250A128A110313AE000430D7
:100A280036250A128A110313A8000C3036250A123B
:100A38008A110313AA00143036250A128A110313E7
:100A4800AD00033036250A128A110313A9000B30B2
:100A580036250A128A110313AC0013303625031306
:100A6800AF000800F4006400831603178C18372DB4
:100A7800740883128D003F3083168C050C14031004
:100A88000C180314003003180130F200F30183122C
:100A98000C0808000313DA01DB01751C5A2D7708CE
:100AA8000313DA070318DB0A7808DB070310F70DCE
:100AB800F80D0310F60CF50C76087504031D512D7E
:100AC80003135B08F6005A08F5000800F500F60164
:100AD8006430F700F8010800F901FA0183132030A7
:100AE800840040300A128A1142260A128A1183169B
:100AF8003130A0004230A1003030A200A3003330D2
:100B0800A4004330A5003530A6004230A700463087
:100B1800A8004330A9003830AA003130AB00AC013E
:100B28008312C0004330C1003030C200C3003830E7
:100B3800C4003230C5004330C6004530C7003630E7
:100B4800C8003930C9003330CA003930CB00CC0175
:100B58003130CD004230CE003030CF00D0003330BD
:100B6800D1004330D2003530D3004230D400463073
:100B7800D5004330D6003830D7003030D800D901FE
:100B880083010A128A11BB2A79180800F501F601B7
:100B98007508313E8400E4250A128A118313800007
:100BA800F50A0319F60A7608803AFF0080307F02BA
:100BB800031DE02D0C307502031CCC2D79140800A0
:100BC800F301831203130818E52D5430F200F20BD9
:100BD800EB2DEE2DF401F40AA930F200F20BF22D00
:100BE800F52D8312031374080818F3040310F40D89
:100BF800F408031DF02DA930F200F20B012E042E8B
:100C080073080800F7000E2E7708F70A840080089A
:100C180003191E2E7208F20A840083130008F400D8
:100C2800770884000008F50074087502F600F608D5
:100C38000319082E7608F200F301F21BF3030800EB
:100C4800FF3087008030831687002430980090306A
:100C58008312980081308316990083129A01080044
:100C68000313881408148316881008148312881430
:100C7800A930F200F20B3E2E412E080064008001DC
:100C8800840A0406031900340406432E71088A00F6
:0A0C980070088300FE0E7E0E0900B6
:100E0000FF1B0A2F83137F1883170008840A031916
:100E1000FF0A08007F087F398A000408840A031942
:100E2000FF0A8200303431343234333434343534D0
:100E300036343734383439340034203420342034D4
:100E40002034203420342034203420342034203402
:100E500020342034203420342034203420342034F2
:100E60002034003452344934533445343A34203435
:100E7000203420344B346734203420342034203460
:100E800020342034203420342034203400342034E2
:100E9000203420342034203420342034433441346E
:100EA000523444342034203420342034203420344C
:100EB0002034203420340034533455344734413402
:100EC00052343A342034203420344B3467342034C4
:100ED0002034203420342034203420342034203472
:100EE0000034553453344534523431342034413491
:100EF0004D344F3455344E3454343A342034203445
:100F000020342034203420342034003455345334F9
:100F1000453452343234203441344D344F34553416
:100F20004E3454343A3420342034203420342034A5
:100F3000203420340034553453344534523433345F
:100F4000203441344D344F3455344E3454343A34D3
:100F50002034203420342034203420342034003411
:100F60004B34453452344F34533445344E34453485
:100F70003A342034203420344C34743473342034E4
:100F800020342034203420340034203450344C3485
:100F900045344134533445342034433448344534A3
:100FA00043344B34203459344F3455345234203484
:100FB00020340034553453344534523420344E34C4
:100FC0004F34543420344134553454344834453447
:100FD0004E3454344934433441345434003453345B
:100FE0004D34413452345434203443344134523437
:100FF000443420342034203420342034203420342D
:1010000000342034203420344334413452344434C6
:101010002034533459345334543445344D3420340B
:1010200020342034003450344C344534413453346B
:1010300045342034543441345034203459344F34FE
:10104000553452342034203400344134553454342F
:101050004F344D34413454344934433420345234C1
:0E1060004134543449344F344E34203400347B
:02400E00E22CA2
:104200000A00000032000A00080000000000000060
:104210000A0000001E000800060000000000000068
:104220000A00000014000400050000000000000067
:00000001FF
