:060000000A128A110E280D
:10000800FE000308F3000408F4000A08F5000A12C9
:100018008A150B2D0A128A158C2CD9002C220A124B
:100028008A110A30D3005808B9230A128A15CC2736
:100038000A128A110A168A1100200A128A112F231D
:100048000A30D30058080A128A1584260A128A111F
:100058000A128A15CC270A128A110A168A11002058
:100068000A128A112F2B80302C220A128A1144304E
:10007800D8009130D90043220A128A11C0302C22AC
:100088000A128A111A30D8009130D90043220A1274
:100098008A112308E2002208E100C53075220A12FD
:1000A8008A1194302C220A128A118530D800903097
:1000B800D90043220A128A112508E2002408E10027
:1000C8009A3075220A128A11D4302C220A128A1107
:1000D8009B30D8009030D90043220A128A11210897
:1000E800E2002008E100DD30752A83168C015530C6
:1000F8008312D4009030D500E2200A128A110D3004
:100108008B210A128A1182210A128A113E3A031D92
:1001180087282F30D4009230D500E2200A128A11A5
:100128004630D4000030D500E2200A128A116B3024
:10013800D4009230D500E2200A128A110D308B21AA
:100148000A128A112230D4009230D500E2200A1215
:100158008A114F30D4000030D500E2200A128A11EB
:100168006B30D4009230D500E2200A128A110D308B
:100178008B210A128A111230D4009230D500E22065
:100188000A128A114B30D4000030D500E2200A123E
:100198008A117030D4009230D500E2200A128A11F8
:1001A8001A308B210A128A1182210A128A114B3ABB
:1001B800031DD828203083168C0008005508FF003E
:1001C800540884000A168A1100200A128A1100387D
:1001D800031908005508FF00540884000A168A11FC
:1001E80000200A128A118B210A128A11D40A0319D3
:1001F800D50AE22880302C220A128A110130D80050
:100208009230D90043220A128A11C0302C220A12D5
:100218008A11F030D8009130D90043220A128A118D
:1002280005309A230A128A1101302C220A128A11E7
:100238007530D4009230D500E2200A128A110D30B0
:100248008B210A128A1182210A128A114B3A031D44
:1002580027295130D4009230D500E2200A128A11A1
:100268000D308B210A128A1182210A128A114B3A07
:10027800031D38294630D4009230D500E2200A12F6
:100288008A110D308B210A128A1182210A128A11D1
:100298004B3A031D49293B30D4009230D500E22067
:1002A8000A128A110D308B210A128A1182210A1230
:1002B8008A114B3A031D5A299530D4009130D50044
:1002C800E2200A128A110D308B210A128A1182212A
:1002D8000A128A114B3A031D6B2980302C220A120C
:1002E8008A115B30D8009230D90043220A128A1151
:1002F8000A309A230A128A1101302C2AE523981C05
:100308008729181218168C1E87291A080800D30086
:100318000C1E8C2953089900080080302C220A12E0
:100328008A11DE30D8009130D90043220A128A118E
:10033800C0302C220A128A11BA30D8009130D90064
:1003480043220A128A111A30DC004530DB007E3065
:10035800DA00DA0BAD29DB0BAD29DC0BAD29013056
:100368002C220A128A110D30DC00A330DB00BD30CC
:10037800DA00DA0BBD29DB0BBD29DC0BBD296400D3
:1003880080302C220A128A11CC30D8009130D90042
:1003980043220A128A11C0302C220A128A11A8306C
:1003A800D8009130D90043220A128A111A30DC0091
:1003B8004530DB007E30DA00DA0BE029DB0BE02980
:1003C800DC0BE029080000305F220A128A11823013
:1003D800D900DD30D800D80BEF29D90BEF29F42943
:1003E80003302C220A128A112130D9007630D80025
:1003F800D80BFC29D90BFC29640003302C220A12E3
:100408008A114830D9006C30D800D80B092AD90B8A
:10041800092A640003302C220A128A1102302C2285
:100428000A128A1102302C220A128A1128302C2230
:100438000A128A1100302C220A128A110C302C223E
:100448000A128A1100302C220A128A1106302C2A2C
:10045800E523D700570E0F39D6000F30D6055708B9
:10046800D5000F30D50556085F220A128A118D2350
:100478000A128A1155085F220A128A118D2B59080F
:10048800FF00580884000A168A1100200A128A11EF
:100498000038031908005908FF00580884000A1694
:1004A8008A1100200A128A112F230A128A11D80AE7
:1004B8000319D90A432AD300531C642A0816652A4B
:1004C8000812D31C692A88166A2A8812531D6E2AB4
:1004D80008176F2A0813D31D732A88170800881372
:1004E8000800E3002C220A128A11E830D9000330F0
:1004F800DA006208DC006108DB00482359080A12A8
:100508008A15CC270A128A110A168A1100200A12A3
:100518008A112F230A128A116430D900DA01D423F0
:100528000A128A11F2220A128A115408DC005308AE
:10053800DB00482359080A128A15CC270A128A11A7
:100548000A168A1100200A128A112F230A128A1108
:100558000A30D900DA01D4230A128A11F2220A12C7
:100568008A11DD230A128A11F2220A128A1154080A
:10057800DC005308DB00482359080A128A15CC27E7
:100588000A128A110A168A1100200A128A112F23C8
:100598000A128A11D4230A128A11F2220A128A1123
:1005A800DD230A128A11F2220A128A115408E50080
:1005B8005308E4000A30D300D4016508D600640863
:1005C800D500F22253080A128A15CC270A128A117A
:1005D8000A168A1100200A128A112F2BD801D61F59
:1005E800FC2AD509D609D50A0319D60AD801D80A8A
:1005F800D41F032BD309D409D30A0319D40A5408E6
:1006080053040319222BD701D70AD41B0F2B03102D
:10061800D30DD40D082B54085602031D152B53086F
:100628005502031C1E2B5308D5025408031CD6037D
:10063800D6020310D40CD30CD70B0F2B5808031970
:100648002A2BD509D609D50A0319D60A5608D40083
:100658005508D3000800D700570E0F39D6000F30C1
:10066800D6055708D5000F30D505081556085F225E
:100678000A128A118D230A128A1155085F220A125A
:100688008A118D2308110800DE01DA1F522BD909BF
:10069800DA09D90A0319DA0ADE01DE0ADC1F5B2B44
:1006A800DB09DC09DB0A0319DC0A0130DE06DF019D
:1006B800E0015A0859040319802BDD01DD0ADA1B11
:1006C800692B0310D90DDA0D622B0310DF0DE00D35
:1006D8005A085C02031D722B59085B02031C7C2B11
:1006E8005908DB025A08031CDC03DC025F14031000
:1006F800DA0CD90CDD0B692B5E080319882BDF098E
:10070800E009DF0A0319E00A6008DA005F08D90087
:10071800080088151A30D400F830D300D30B922B78
:10072800D40B922B6400E52388110800D50004300F
:10073800D600FA30A8230A128A116400E523D60BE2
:100748009D2BD50B9B2B0800D3000430D4003E30E2
:10075800F70000000A128A11F70BAF2B6400E5239B
:10076800D40BAB2BD30BA92B0800D400D60153080C
:100778000319D22BD501D50AD31BC52B0310D30DD2
:10078800BF2B0310D60D53085402031CCF2B53085C
:10079800D40256140310D30CD50BC52B56080800E9
:1007A8006208D6006108D500E830D3000330D400D1
:1007B80008005408D6005308D5006430D300D4018B
:1007C80008008312031308008316031788018901A0
:1007D800013003138800831288018F308316870045
:1007E80083128701C0308B000A128A152E240A1240
:1007F8008A110A128A11E7210A128A110A128A1525
:1008080044250A128A110A128A1520240A128A110A
:100818000A128A1191210A128A110A128A11FE20DB
:100828000A128A11203083168C000A128A155E2556
:100838000A128A110718452CCC30D8009130D900FB
:100848000A128A1143220A128A11C0300A128A1126
:100858002C220A128A11A830D8009130D9000A1225
:100868008A1143220A128A110630E8000E30E70086
:10087800B030E600E60B3E2CE70B3E2CE80B3E2C96
:1008880076100A128A11BC270A128A11D4300A1269
:100898008A112C220A128A11C730D800D9010A12EB
:1008A8008A1143220A128A11A030D30037300A1263
:1008B8008A154F240A128A1154085304031D692CFF
:1008C800A601A60AA701B701742FAD30D3003730AF
:1008D8000A128A154F240A128A1154085304031D58
:1008E800772C0230842CBA30D30037300A128A159C
:1008F8004F240A128A1154085304031D742F03301D
:10090800A600662C0A128A1581250A128A118030DF
:100918000A128A112C220A128A11DB30D800903070
:10092800D9000A128A1143220A128A112908E20000
:100938002808E1008D300A128A1175220A128A11DC
:10094800C0300A128A112C220A128A11B130D8003A
:100958009030D9000A128A1143220A128A112F08EC
:10096800D800C5300A128A155E260A128A119430F8
:100978000A128A112C220A128A11C630D800903025
:10098800D9000A128A1143220A128A113008D800A3
:100998009A300A128A1111200A128A11D4300A12C6
:1009A8008A112C220A128A112F30D8009130D900CE
:1009B8000A128A1143220A128A112E08D800DD3041
:1009C8000A128A1536260A128A112F08A202031C57
:1009D800A3033008A402031CA5032E08A002031CCD
:1009E800A1036430D800D9012308DB002208DA000B
:1009F8000A128A15A2270A128A115808E10018302B
:100A08000A128A156D240A128A116430831203139C
:100A1800D300D4012308D6002208D5000A128A156B
:100A28007E270A128A115308E10019300A128A1522
:100A38006D240A128A11831203132408E1001A3064
:100A48000A128A156D240A128A11831203132008C8
:100A5800E1001B300A128A156D240A128A11CE3061
:100A680083120313A807031CA9036430D900DA0111
:100A78002908DC002808DB000A128A1148230A1218
:100A88008A115908E10000300A128A156D240A12E9
:100A98008A11643083120313D300D4012908D600C5
:100AA8002808D5000A128A11F2220A128A1153085C
:100AB800E10001300A128A156D240A128A11831284
:100AC80003132F08E10002300A128A156D240A1256
:100AD8008A11831203133008E10003300A128A15C1
:100AE8006D240A128A11831203132E08E1000430C0
:100AF8000A128A156D240A128A1183120313A60199
:100B0800A701822F0A128A1581250A128A118030BC
:100B18000A128A112C220A128A11F030D800903059
:100B2800D9000A128A1143220A128A112B08E200FC
:100B38002A08E1008D300A128A1175220A128A11D8
:100B4800C0300A128A112C220A128A11B130D80038
:100B58009030D9000A128A1143220A128A113208E7
:100B6800D800C5300A128A155E260A128A119430F6
:100B78000A128A112C220A128A11C630D800903023
:100B8800D9000A128A1143220A128A113308D8009E
:100B98009A300A128A1111200A128A11D4300A12C4
:100BA8008A112C220A128A112F30D8009130D900CC
:100BB8000A128A1143220A128A113108D800DD303C
:100BC8000A128A1536260A128A113208A202031C52
:100BD800A3033308A402031CA5033108A002031CC5
:100BE800A1036430D800D9012308DB002208DA0009
:100BF8000A128A15A2270A128A115808E100183029
:100C08000A128A156D240A128A116430831203139A
:100C1800D300D4012308D6002208D5000A128A1569
:100C28007E270A128A115308E10019300A128A1520
:100C38006D240A128A11831203132408E1001A3062
:100C48000A128A156D240A128A11831203132008C6
:100C5800E1001B300A128A156D240A128A11E2304B
:100C680083120313AA07031CAB036430D900DA010B
:100C78002B08DC002A08DB000A128A1148230A1212
:100C88008A115908E10008300A128A156D240A12DF
:100C98008A11643083120313D300D4012B08D600C1
:100CA8002A08D5000A128A11F2220A128A11530858
:100CB800E10009300A128A156D240A128A1183127A
:100CC80003133208E1000A300A128A156D240A1249
:100CD8008A11831203133308E1000B300A128A15B4
:100CE8006D240A128A11831203133108E1000C30B3
:100CF8007C2D0A128A1581250A128A1180300A125F
:100D08008A112C220A128A110530D8009130D90094
:100D18000A128A1143220A128A112D08E2002C08AD
:100D2800E1008D300A128A1175220A128A11C03028
:100D38000A128A112C220A128A11B130D800903076
:100D4800D9000A128A1143220A128A113508D800DA
:100D5800C5300A128A155E260A128A1194300A12C0
:100D68008A112C220A128A11C630D8009030D90074
:100D78000A128A1143220A128A113608D8009A30B8
:100D88000A128A1111200A128A11D4300A128A1101
:100D98002C220A128A112F30D8009130D9000A1259
:100DA8008A1143220A128A113408D800DD300A1247
:100DB8008A1536260A128A113508A202031CA303D3
:100DC8003608A402031CA5033408A002031CA103CF
:100DD8006430D800D9012308DB002208DA000A129F
:100DE8008A15A2270A128A115808E10018300A1237
:100DF8008A156D240A128A11643083120313D300F2
:100E0800D4012308D6002208D5000A128A157E27A5
:100E18000A128A115308E10019300A128A156D2442
:100E28000A128A11831203132408E1001A300A12E5
:100E38008A156D240A128A11831203132008E1000F
:100E48001B300A128A156D240A128A11EC3083129B
:100E58000313AC07031CAD036430D900DA012D0875
:100E6800DC002C08DB000A128A1148230A128A11B6
:100E78005908E10010300A128A156D240A128A11E5
:100E8800643083120313D300D4012D08D6002C0834
:100E9800D5000A128A11F2220A128A115308E100B7
:100EA80011300A128A156D240A128A11831203134B
:100EB8003508E10012300A128A156D240A128A11C7
:100EC800831203133608E10013300A128A156D24C1
:100ED8000A128A11831203133408E10014307C2D9E
:100EE8002708003A031D822F2608013A0319862C89
:100EF800033A0319862D013A03197D2E0A128A1521
:100F08005E250A128A110A128A15A0260A128A1167
:100F1800871C932F0A128A1137200A128A110D3062
:100F2800E800A330E700BD30E600E60B992FE70B99
:100F3800992FE80B992F6400653083120313D300AF
:100F48009230D400C730D5000530D600D7010A1238
:100F58008A15D5240A128A11540853040319F6185D
:100F6800192C0A128A1179200A128A11F614192CDE
:100F780076180800FB27D601D701FB275608373E0D
:100F88008400DA270A128A1183138000D60A03190B
:100F9800D70A5708803AFF0080307F02031DD62FFA
:100FA8000C305602031CC12F76140800D40108180F
:100FB800DB2F5430D300D30BDF2FE22FFB27D501D3
:100FC800D50AA930D300D30BE72FEA2FFB27550802
:100FD8000818D4040310D50DD508031DE52FA93032
:100FE800D300D30BF52FF82FFB27540808008312E2
:040FF80003130800D7
:1018300064008001840A0406031900340406192C8C
:10184000031388140814831688100814831288144C
:10185000A930D300D30B2A2C2D2C0800FF30870091
:1018600080308316870024309800903083129800CF
:1018700081308316990083129A0108007E088A003D
:101880007F0882003E240A128A158000840A040818
:101890007D0603190034FF0A0319FE0A422CD80002
:1018A000572C5808D80A840080080319672C53085D
:1018B000D30A840083130008D50058088400000868
:1018C000D60055085602D700D7080319512C5708DF
:1018D000D300D401D31BD4030800E20083160317FE
:1018E0008C186E2C83120313620803178D000313E8
:1018F000610803178C003F3083168C0503108B1B87
:1019000003148B130C1555308D00AA308D008C14E8
:101910000C1103188B170800F601F7018313203010
:10192000840053300A128A1518240A128A15C73007
:101930008400DB300A128A1518240A128A15C7306F
:10194000FD000C30FE00AE30FF00A03084000A1213
:101950008A15422483010A128A11E82B3134433458
:101960003034303438343234433445343634393416
:101970003334393400343134423430343034333455
:10198000433435344234463443343834303400340C
:1019900031344234303430343334433435344234E7
:1019A000463443343834313400340130D602003008
:1019B000031CD703D702560A0319570A0319082D27
:1019C0005508840083130008D8005408FF0053080A
:1019D00084000A168A1100200A128A155806031973
:1019E000032D5408FF00530884000A168A110020B2
:1019F000D80055088400831300085802D300D4018E
:101A0000031CD4030800D30A0319D40AD50AD52C21
:101A1000D301D4010800831203138C1E122DF6107B
:101A2000C7301B2575088A0074088400730883007A
:101A3000FE0E7E0E0900F100F0013C250A128A1507
:101A4000F200233A031D2A2DF001F00A3C250A1268
:101A50008A15F20070080319332D7108840072088A
:101A600083138000F10A72080A3A031D1D2D7108C4
:101A70008400831380010800981C402D181218164A
:101A80008C1E402D1A0808000030F8250A128A150D
:101A90002F260A128A1516260A128A150130F825F1
:101AA0000A128A150230F8250A128A152F260A1200
:101AB0008A1516260A128A150330F82D1830F825D3
:101AC0000A128A152F260A128A1516260A128A1554
:101AD0005708A3005608A2001930F8250A128A15E3
:101AE0000313A2070318A30A1A30F8250A128A154D
:101AF0000313A400A5011B30F8250313A000A101C6
:101B000008000030F8250A128A152F260A128A15B5
:101B100016260A128A155708A9005608A80001308F
:101B2000F8250A128A150313A8070318A90A083012
:101B3000F8250A128A152F260A128A1516260A1265
:101B40008A155708AB005608AA000930F8250A1272
:101B50008A150313AA070318AB0A1030F8250A12D6
:101B60008A152F260A128A1516260A128A15570870
:101B7000AD005608AC001130F8250A128A1503137F
:101B8000AC070318AD0A0230F8250A128A150313B0
:101B9000AF000A30F8250A128A150313B20012307A
:101BA000F8250A128A150313B5000430F8250A1225
:101BB0008A150313AE000C30F8250A128A15031398
:101BC000B1001430F8250A128A150313B40003304B
:101BD000F8250A128A150313B0000B30F8250A12F3
:101BE0008A150313B3001330F8250313B600080059
:101BF00083120313D5006400831603178C18FB2D82
:101C000083120313550803178D003F3083168C058C
:101C10000C1403100C180314003003180130831245
:101C20000313D300D40103170C080800DA01DB0109
:101C3000561C202E5808DA070318DB0A5908DB0760
:101C40000310D80DD90D0310D70CD60C5708560425
:101C5000031D182E5B08D7005A08D600080003138E
:101C6000D600D7016430D800D9010800D9000A1283
:101C70008A112C220A128A150A30D30058080A1237
:101C80008A11B9230A128A15CC270A168A11002054
:101C90000A128A150A128A112F230A128A150A308B
:101CA000D300580884260A128A15CC270A168A11EE
:101CB00000200A128A150A128A112F2BD9000A1243
:101CC0008A112C220A128A150A30D30058080A12E7
:101CD0008A11B9230A128A15CC270A168A11002004
:101CE0000A128A150A128A112F230A128A150A303B
:101CF000D300580884260A128A15CC270A168A119E
:101D000000200A128A112F2BD5000830D600D701E7
:101D10005508D40007300310D40CFF3E0310031DF8
:101D20008C2E570D5404D7000310D50D53085702BD
:101D3000031C9C2E5308D702D60B882E5708080088
:101D4000E830D8000330D9002308DB002208DA008D
:101D5000A2270A128A155808CC270A168A110020D1
:101D60000A128A15C6006430D800D901DF270A128A
:101D70008A157E270A128A155408DB005308DA00F8
:101D8000A2270A128A155808CC270A168A110020A1
:101D90000A128A15C7000A30D800D901DF270A12B3
:101DA0008A157E270A128A15F0270A128A157E27BD
:101DB0000A128A155408DB005308DA00A2270A1217
:101DC0008A155808CC270A168A1100200A128A158B
:101DD000C800DF270A128A157E270A128A15F02703
:101DE0000A128A157E270A128A15D3270A128A1523
:101DF0007E270A128A155308CC270A168A1100205A
:101E00000A128A15C9006430D800D9012508DB0000
:101E10002408DA00A2270A128A155808CC270A16C5
:101E20008A1100200A128A15CF000A30D800D90181
:101E3000E8270A128A157E270A128A155408DB0041
:101E40005308DA00A2270A128A155808CC270A1666
:101E50008A1100200A128A15D000E8270A128A1572
:101E60007E270A128A15D3270A128A157E270A129C
:101E70008A155308CC270A168A1100200A128A15DF
:101E8000D1006430D800D9012108DB002008DA0035
:101E9000A2270A128A155808CC270A168A11002090
:101EA0000A128A15CB000A30D800D901F8270A1285
:101EB0008A157E270A128A155408DB005308DA00B7
:101EC000A2270A128A155808CC270A168A11002060
:101ED0000A128A15CC00F8270A128A157E270A12E0
:101EE0008A15D3270A128A157E270A128A155308E3
:101EF000CC270A168A110020CD000800540853048C
:101F000003199D2FD701D70AD41B8A2F0310D30D95
:101F1000D40D832F54085602031D902F53085502E9
:101F2000031C992F5308D5025408031CD603D6026C
:101F30000310D40CD30CD70B8A2F5608D4005508A5
:101F4000D3000800DC01DD01590858040319C72F2C
:101F5000DE01DE0AD91BB02F0310D80DD90DA92F31
:101F60000310DC0DDD0D59085B02031DB92F580865
:101F70005A02031CC32F5808DA025908031CDB035A
:101F8000DB025C140310D90CD80CDE0BB02F5D08FB
:101F9000D9005C08D8000800123E84009030031875
:101FA000013EFF0008005408E0005308DF000A303B
:101FB000D300D4016008D6005F08D50008002308CC
:101FC000D6002208D500E830D3000330D400080042
:101FD0002508D6002408D5006430D300D4010800B9
:101FE0005408D6005308D5006430D300D40108004B
:101FF0002108D6002008D5006430D300D4010800A1
:10200000FF1B0A2883137F1883170008840A03190B
:10201000FF0A08007F087F398A000408840A031930
:10202000FF0A8200303431343234333434343534BE
:10203000363437343834393400346D346F346934DD
:10204000733474346534723420346C3465347634CB
:1020500065346C342034683469346734683420342F
:102060006D346F3474346534723420344F344634F4
:10207000463400346D346F346934733474346534E9
:10208000723420346C346534763465346C342034E6
:102090006C346F34773420346D346F347434653479
:1020A000723420344F344E340034413454342B34A1
:1020B00043344D34473453343D3422342B34393493
:1020C00031343934383439343434373434343834BE
:1020D00032343034303422340034413454342B34EC
:1020E00043344D34473453343D3422342B34393463
:1020F000313439343734393430343034383430349E
:102100003534313430342234003453345534473488
:10211000413452343A3420342034203420344B3487
:1021200067342034203420342034203420342034C8
:102130002034203400344B34453452344F3453343B
:1021400045344E3445343A3420342034203420345D
:1021500020344C347434733420342034203420340C
:10216000003452344934533445343A342034203422
:1021700020344B346734203420342034203420344D
:102180002034203420342034203400345334553467
:102190004734413452343A342034203420344B34E0
:1021A0006734203420342034203420342034203448
:1021B00020342034003455345334453452343134CF
:1021C000203441344D344F3455344E3454343A3441
:1021D000203420342034203420342034203400347F
:1021E00055345334453452343234203441344D3430
:1021F0004F3455344E3454343A342034203420345F
:1022000020342034203420340034553453344534C1
:1022100052343334203441344D344F3455344E34F9
:1022200054343A34203420342034203420342034C0
:102230002034003452344934533445343A34203451
:10224000203420342034203420344B34673420347C
:1022500020342034203420342034203400344B34D3
:10226000453452344F34533445344E3445343A3483
:102270002034203420344C347434733420342034EB
:1022800020342034203400342034203420342034CE
:10229000533454344F3443344B3420344434453471
:1022A0005434413449344C345334203420342034B1
:1022B0000034433472346F347034203463347234F5
:1022C0006F34733473346534643420347334743449
:1022D00061346734653431340034433472346F34DC
:1022E00070342034633472346F347334733465342F
:1022F0006434203473347434613467346534323474
:102300000034433472346F347034203463347234A4
:102310006F347334733465346434203473347434F8
:1023200061346734653433340034413454342B34ED
:1023300043344E344D3449343D3432342C34323409
:102340002C3430342C3430342C3430340D340034CC
:1023500053344D34413452345434203443344134B2
:102360005234443420342034203420342034203477
:102370002034003420342034203443344134523467
:1023800044342034533459345334543445344D3464
:10239000203420342034003450344C34453441341B
:1023A0005334453420345434413450342034593477
:1023B0004F345534523420342034003441345534B1
:1023C00054344F344D34413454344934433420343C
:1023D00052344134543449344F344E342034003470
:1023E00050344C3453342034573441344934543409
:1023F0002E342E342E342E342E342E342E342E34CD
:102400000034473453344D34203449344E34493445
:102410005434493441344C3449345A3449344E34B8
:10242000473400344B34653472346F34733465345C
:102430006E3465342034533474346F3463346B3405
:102440003A34003453347534673461347234203490
:10245000533474346F3463346B343A34003452344C
:102460006934733465342034533474346F346334D2
:102470006B343A340034413454342B3443344D34C7
:10248000473446343D3431340D340034413454340F
:102490002B3443345334443448343D3431340D34D4
:1024A0000034413454342B344334503449344E34A2
:1024B0003F340D340034473453344D3420345234D7
:1024C00045344134443459340034533454344F3453
:1024D00043344B34003420344B3467347334003489
:1024E00020344C34743473340034413454340D3457
:0224F0000034B6
:02400E00E22CA2
:104200000A00000032000A00080000000000000060
:104210000A0000001E000800060000000000000068
:104220000A00000014000400050000000000000067
:104230000A000000FF00C800C800000000000000E5
:00000001FF
