:060000000A128A110E280D
:10000800FE000308F3000408F4000A08F5000A12C9
:100018008A11A02F0A128A15B72ED9001C220A129B
:100028008A110A30D3005808A9230A128A113827DE
:100038000A128A110A168A1100200A128A111F232D
:100048000A128A110A30D3005808C4230A128A11E6
:1000580038270A128A110A168A1100200A128A11F0
:100068001F2BD9001C220A128A110A30D300580803
:10007800A9230A128A1138270A128A110A168A1124
:1000880000200A128A111F230A128A110A30D3008B
:100098005808C4230A128A1138270A128A110A1624
:1000A8008A1100200A128A111F2B80301C220A1282
:1000B8008A112C30D8009130D90033220A128A11C3
:1000C800C0301C220A128A110230D8009130D9009F
:1000D80033220A128A112B08E2002A08E100C530EF
:1000E80065220A128A1194301C220A128A116D3074
:1000F800D8009030D90033220A128A112D08E20064
:100108002C08E1009A3065220A128A11D4301C2288
:100118000A128A118330D8009030D90033220A128B
:100128008A112908E2002808E100DD30652A8316D3
:100138008C0155308312D4009030D50065210A1205
:100148008A110D305F210A128A1156210A128A116A
:100158003E3A031DA928FA30D4009130D500652114
:100168000A128A114E30D4000030D50065210A12D7
:100178008A113630D4009230D50065210A128A11CE
:100188001A305F210A128A1156210A128A114B3A33
:10019800031DC828203083168C00080080301C22DC
:1001A8000A128A11E930D8009130D90033220A1294
:1001B8008A11C0301C220A128A11D830D800913016
:1001C800D90033220A128A1105308A230A128A11A9
:1001D80001301C220A128A113B30D4009230D5001B
:1001E80065210A128A110D305F210A128A115621DF
:1001F8000A128A114B3A031DFB281C30D400923096
:10020800D50065210A128A110D305F210A128A1160
:1002180056210A128A114B3A031D0C291130D400B9
:100228009230D50065210A128A110D305F210A1219
:100238008A1156210A128A114B3A031D1D290630CC
:10024800D4009230D50065210A128A110D305F2141
:100258000A128A1156210A128A114B3A031D2E29B5
:100268007D30D4009130D50065210A128A110D30F5
:100278005F210A128A1156210A128A114B3A031D6C
:100288003F2980301C220A128A112630D800923069
:10029800D90033220A128A110A308A230A128A11D3
:1002A80001301C2AF123981C5B29181218168C1E81
:1002B8005B291A080800D3000C1E6029530899000E
:1002C80008005508FF00540884000A168A11002007
:1002D8000A128A110038031908005508FF0054084B
:1002E80084000A168A1100200A128A115F210A1254
:1002F8008A11D40A0319D50A652980301C220A12EA
:100308008A11C630D8009130D90033220A128A11D6
:10031800C0301C220A128A11A230D8009130D900AC
:1003280033220A128A111A30DC004530DB007E3095
:10033800DA00DA0B9D29DB0B9D29DC0B9D290130A6
:100348001C220A128A110D30DC00A330DB00BD30FC
:10035800DA00DA0BAD29DB0BAD29DC0BAD29640023
:1003680080301C220A128A11B430D8009130D9008A
:1003780033220A128A11C0301C220A128A119030C4
:10038800D8009130D90033220A128A111A30DC00C1
:100398004530DB007E30DA00DA0BD029DB0BD029C0
:1003A800DC0BD029080000304F220A128A11823053
:1003B800D900DD30D800D80BDF29D90BDF29E42993
:1003C80003301C220A128A112130D9007630D80055
:1003D800D80BEC29D90BEC29640003301C220A1233
:1003E8008A114830D9006C30D800D80BF929D90BBC
:1003F800F929640003301C220A128A1102301C22D7
:100408000A128A1102301C220A128A1128301C2270
:100418000A128A1100301C220A128A110C301C227E
:100428000A128A1100301C220A128A1106301C2A6C
:10043800F123D700570E0F39D6000F30D6055708CD
:10044800D5000F30D50556084F220A128A117D2390
:100458000A128A1155084F220A128A117D2B59084F
:10046800FF00580884000A168A1100200A128A110F
:100478000038031908005908FF00580884000A16B4
:100488008A1100200A128A111F230A128A11D80A17
:100498000319D90A332AD300531C542A0816552A9B
:1004A8000812D31C592A88165A2A8812531D5E2A04
:1004B80008175F2A0813D31D632A881708008813B2
:1004C8000800E3001C220A128A11E830D900033020
:1004D800DA006208DC006108DB00382359080A12D8
:1004E8008A1138270A128A110A168A1100200A125C
:1004F8008A111F230A128A116430D900DA01E02315
:100508000A128A11E2220A128A115408DC005308DE
:10051800DB00382359080A128A1138270A128A116F
:100528000A168A1100200A128A111F230A128A1138
:100538000A30D900DA01E0230A128A11E2220A12EB
:100548008A11E9230A128A11E2220A128A1154082E
:10055800DC005308DB00382359080A128A113827AF
:100568000A128A110A168A1100200A128A111F23F8
:100578000A128A11E0230A128A11E2220A128A1147
:10058800E9230A128A11E2220A128A115408E500A4
:100598005308E4000A30D300D4016508D600640883
:1005A800D500E22253080A128A1138270A128A1142
:1005B8000A168A1100200A128A111F2BD801D61F89
:1005C800EC2AD509D609D50A0319D60AD801D80ABA
:1005D800D41FF32AD309D409D30A0319D40A540817
:1005E80053040319122BD701D70AD41BFF2A03106F
:1005F800D30DD40DF82A54085602031D052B5308B1
:100608005502031C0E2B5308D5025408031CD603AD
:10061800D6020310D40CD30CD70BFF2A58080319A1
:100628001A2BD509D609D50A0319D60A5608D400B3
:100638005508D3000800D700570E0F39D6000F30E1
:10064800D6055708D5000F30D505081556084F228E
:100658000A128A117D230A128A1155084F220A129A
:100668008A117D2308110800DE01DA1F422BD909FF
:10067800DA09D90A0319DA0ADE01DE0ADC1F4B2B74
:10068800DB09DC09DB0A0319DC0A0130DE06DF01BD
:10069800E0015A0859040319702BDD01DD0ADA1B41
:1006A800592B0310D90DDA0D522B0310DF0DE00D75
:1006B8005A085C02031D622B59085B02031C6C2B51
:1006C8005908DB025A08031CDC03DC025F14031020
:1006D800DA0CD90CDD0B592B5E080319782BDF09CE
:1006E800E009DF0A0319E00A6008DA005F08D900A8
:1006F800080088151A30D400F830D300D30B822BA9
:10070800D40B822B6400F12388110800D500043033
:10071800D600FA3098230A128A116400F123D60B06
:100728008D2BD50B8B2B0800D3000430D4003E3022
:10073800F70000000A128A11F70B9F2B6400F123BF
:10074800D40B9B2BD30B992B0800D400D60153084C
:100758000319C22BD501D50AD31BB52B0310D30D12
:10076800AF2B0310D60D53085402031CBF2B53089C
:10077800D40256140310D30CD50BB52B5608080019
:10078800D5000830D600D7015508D400073003102B
:10079800D40CFF3E0310031DCC2B570D5404D70077
:1007A8000310D50D53085702031CDC2B5308D7023E
:1007B800D60BC82B570808006208D6006108D50078
:1007C800E830D3000330D40008005408D60053089A
:1007D800D5006430D300D401080083120313080045
:1007E80083160317880189010130031388008312D7
:1007F80088018F308316870083128701C0308B00F1
:100808000A128A1578260A128A110A128A11D72121
:100818000A128A110A128A150F270A128A110A1255
:100828008A156A260A128A110A128A1181210A1265
:100838008A110A128A11D2200A128A1120308316CC
:100848008C00831207184D2CB430D8009130D90091
:100858000A128A1133220A128A11C0300A128A1126
:100868001C220A128A119030D8009130D9000A123D
:100878008A1133220A128A110630E8000E30E70086
:10088800B030E600E60B462CE70B462CE80B462C6E
:1008980076100A128A115E270A128A11D4300A12B7
:1008A8008A111C220A128A11C730D800D9010A12EB
:1008B8008A1133220A128A11A030D3003F300A125B
:1008C8008A1599260A128A1154085304031D712C9B
:1008D800AE01AE0AAF01BF01AE2DAD30D3003F303F
:1008E8000A128A1599260A128A1154085304031DFC
:1008F8007F2C02308C2CBA30D3003F300A128A1574
:1009080099260A128A1154085304031DAE2D033088
:10091800AE006E2C0A128A154C270A128A118030F2
:100928000A128A111C220A128A11C330D800903088
:10093800D9000A128A1133220A128A113108E200F8
:100948003008E1008D300A128A1165220A128A11D4
:10095800C0300A128A111C220A128A119930D80052
:100968009030D9000A128A1133220A128A113708E4
:10097800D800C5300A128A1111200A128A1194303F
:100988000A128A111C220A128A11AE30D80090303D
:10099800D9000A128A1133220A128A113808D8009B
:1009A8009A300A128A1135200A128A11D4300A1292
:1009B8008A111C220A128A111730D8009130D900E6
:1009C8000A128A1133220A128A113608D800DD3039
:1009D8000A128A11F6250A128A11AE01AF01BC2D3E
:1009E8000A128A154C270A128A1180300A128A11B3
:1009F8001C220A128A11D830D8009030D9000A1265
:100A08008A1133220A128A113308E2003208E100FF
:100A18008D300A128A1165220A128A11C0300A1210
:100A28008A111C220A128A119930D8009030D900F4
:100A38000A128A1133220A128A113A08D800C530DC
:100A48000A128A1111200A128A1194300A128A1184
:100A58001C220A128A11AE30D8009030D9000A122E
:100A68008A1133220A128A113B08D8009A300A12D6
:100A78008A1135200A128A11D4300A128A111C22CE
:100A88000A128A111730D8009130D9000A128A1137
:100A980033220A128A113908EA2C0A128A154C27BD
:100AA8000A128A1180300A128A111C220A128A112B
:100AB800ED30D8009030D9000A128A1133220A1278
:100AC8008A113508E2003408E1008D300A128A11D3
:100AD80065220A128A11C0300A128A111C220A12CF
:100AE8008A119930D8009030D9000A128A1133221D
:100AF8000A128A113D08D800C5300A128A1111203D
:100B08000A128A1194300A128A111C220A128A11B6
:100B1800AE30D8009030D9000A128A1133220A1256
:100B28008A113E08D8009A300A128A1135200A1212
:100B38008A11D4300A128A111C220A128A1117301B
:100B4800D8009130D9000A128A1133220A128A1168
:100B58003C08EA2C2F08003A031DBC2D2E08013A48
:100B680003198E2C033A0319F42C013A0319512D59
:100B78000A128A1529270A128A110A128A112026AE
:100B88000A128A11871CCD2D0A128A1159200A12BD
:100B98008A110D30E800A330E700BD30E600E60B0F
:100BA800D32DE70BD32DE80BD32D640030308312FF
:100BB8000313D3009230D400C730D5000530D600D7
:100BC800D7010A128A15D9260A128A115408530421
:100BD8000319F618252C0A128A119B200A128A1169
:100BE800F614252CD9000A128A111C220A128A111D
:100BF8000A30D30058080A128A11A9230A128A1146
:100C080038270A168A1100200A128A110A128A1134
:100C18001F230A128A110A30D30058080A128A11AF
:100C2800C4230A128A1138270A168A1100200A12C8
:100C38008A110A128A111F2BE830D8000330D90014
:100C48002B08DB002A08DA000E270A128A11580836
:100C580038270A168A1100200A128A11CE00643039
:100C6800D800D9013F270A128A11EA260A128A11E6
:100C78005408DB005308DA000E270A128A115808B4
:100C880038270A168A1100200A128A11CF000A3062
:100C9800D800D9013F270A128A11EA260A128A11B6
:100CA80048270A128A11EA260A128A115408DB0018
:100CB8005308DA000E270A128A11580838270A162C
:100CC8008A1100200A128A11D0003F270A128A11BD
:100CD800EA260A128A1148270A128A11EA260A12F3
:100CE8008A115408E0005308DF000A30D300D40109
:100CF8006008D6005F08D500EA260A128A11530850
:100D080038270A168A1100200A128A11D100643085
:100D180050270A128A110E270A128A1158083827F2
:100D28000A168A1100200A128A11A4000A305027D4
:100D38000A128A110E270A128A11580838270A1629
:100D48008A1100200A128A11A5000A30D300D401A2
:100D58002D08D6002C08D500EA260A128A11530855
:100D680038270A168A1100200A128A11A600643050
:100D780057270A128A110E270A128A11580838278B
:100D88000A168A1100200A128A11A0000A30572771
:100D98000A128A110E270A128A11580838270A16C9
:100DA8008A1100200A128A11A1000A30D300D40146
:100DB8002908D6002808D500EA260A128A115308FD
:100DC80038270A168A110020A20008005408530484
:100DD8000319092FD701D70AD41BF62E0310D30DF8
:100DE800D40DEF2E54085602031DFC2E530855024D
:100DF800031C052F5308D5025408031CD603D6023A
:100E08000310D40CD30CD70BF62E5608D400550873
:100E1800D3000800DC01DD01590858040319332FF9
:100E2800DE01DE0AD91B1C2F0310D80DD90D152F92
:100E38000310DC0DDD0D59085B02031D252F580832
:100E48005A02031C2F2F5808DA025908031CDB0327
:100E5800DB025C140310D90CD80CDE0B1C2F5D08C8
:100E6800D9005C08D8000800123E840090300318AE
:100E7800013EFF0008002B08D6002A08D500E830FC
:100E8800D3000330D40008005408D6005308D50016
:100E98006430D300D4010800D800D9012D08DB0044
:100EA8002C08DA000800D800D9012908DB00280836
:100EB800DA000800761808009D27D601D7019D277B
:100EC80056083F3E84007C270A128A11831380004B
:100ED800D60A0319D70A5708803AFF0080307F02E4
:100EE800031D782F0C305602031C632F761408005C
:100EF800D40108187D2F5430D300D30B812F842FB1
:100F08009D27D501D50AA930D300D30B892F8C2F63
:100F18009D2755080818D4040310D50DD508031DBE
:100F2800872FA930D300D30B972F9A2F9D275408CA
:100F38000800831203130800831203138C1EA62FC4
:100F4800C730AF2775088A007408840073088300C7
:100F5800FE0E7E0E0900F100F001D0270A128A1158
:100F6800F200233A031DBE2FF001F00AD0270A121F
:100F78008A11F20070080319C72F710884007208DB
:100F880083138000F10A72080A3A031DB12F710811
:100F98008400831380010800981CD42F1812181697
:100FA8008C1ED42F1A0808003134433430343034BE
:100FB80038343234433445343634393433343934BC
:100FC80000343134423430343034333443343534FB
:100FD80042344634433438343034003431344234C3
:100FE8003034303433344334353442344634433483
:060FF800383431340034EE
:101CC40064008001840A0406031900340406632EA8
:101CD40003138814081483168810081483128814B4
:101CE400A930D300D30B742E772E0800FF30870061
:101CF4008030831687002430980090308312980037
:101D040081308316990083129A0108007E088A00A4
:101D14007F08820088260A128A158000840A040833
:101D24007D0603190034FF0A0319FE0A8C2ED8001D
:101D3400A12E5808D80A840080080319B12E53082C
:101D4400D30A840083130008D500580884000008CF
:101D5400D60055085602D700D70803199B2E5708FA
:101D6400D300D401D31BD4030800F601F701831375
:101D74002030840053300A128A1562260A128A150A
:101D8400C7308400DB300A128A1562260A128A15CB
:101D9400C730FD000730FE00D830FF00A0308400BB
:101DA4000A128A158C2683010A128A11F42B013037
:101DB400D6020030031CD703D702560A0319570A68
:101DC40003190C2F5508840083130008D800540805
:101DD400FF00530884000A168A1100200A128A158B
:101DE40058060319072F5408FF00530884000A16E5
:101DF4008A110020D8005508840083130008580273
:101E0400D300D401031CD4030800D30A0319D40A51
:101E1400D50AD92ED301D40108000030C3270A12F1
:101E24008A15F9270A128A15E0270A128A15013041
:101E3400C3270A128A150230C3270A128A15F92702
:101E44000A128A15E0270A128A150330C32F1830A4
:101E5400C3270A128A15F9270A128A15E0270A12DB
:101E64008A155708AB005608AA001930C3270A126E
:101E74008A150313AA070318AB0A1A30C3270A12D8
:101E84008A150313AC00AD011B30C3270313A8004C
:101E9400A90108000030C3270A128A15F9270A127B
:101EA4008A15E0270A128A155708B1005608B000AF
:101EB4000130C3270A128A150313B0070318B10AA5
:101EC4000830C3270A128A15F9270A128A15E0274F
:101ED4000A128A155708B3005608B2000F30C327F8
:101EE4000A128A150313B2070318B30A1030C32762
:101EF4000A128A15F9270A128A15E0270A128A1586
:101F04005708B5005608B4001730C3270A128A15BB
:101F14000313B4070318B50A0230C3270A128A153B
:101F24000313B7000A30C3270A128A150313BA0031
:101F34001230C3270A128A150313BD000430C327C5
:101F44000A128A150313B6000C30C3270A128A1525
:101F54000313B9001430C3270A128A150313BC00F3
:101F64000330C3270A128A150313B8000B30C327A2
:101F74000A128A150313BB001330C3270313BE00D0
:101F840008000313D5006400831603178C18C52FAB
:101F940083120313550803178D003F3083168C05F5
:101FA4000C1403100C1803140030031801308312AE
:101FB4000313D300D40103170C080800DA01DB0172
:101FC400561CEA2F5808DA070318DB0A5908DB07FE
:101FD4000310D80DD90D0310D70CD60C570856048E
:101FE400031DE22F5B08D7005A08D600080003132C
:101FF400D600D7016430D800D9010800FF1B0A2895
:1020040083137F1883170008840A0319FF0A080042
:102014007F087F398A000408840A0319FF0A8200B2
:102024003034313432343334343435343634373470
:102034003834393400346D346F346934733474345F
:102044006534723420346C346534763465346C34DD
:102054002034683469346734683420346D346F3420
:1020640074346534723420344F3446344634003486
:102074006D346F3469347334743465347234203499
:102084006C346534763465346C3420346C346F3499
:10209400773420346D346F347434653472342034BE
:1020A4004F344E340034413454342B3443344D349F
:1020B400473453343D3422342B34393431343934B5
:1020C40037343934303430343834303435343134CE
:1020D4003034223400345334553447344134523488
:1020E4003A3420342034203420344B3467342034C0
:1020F400203420342034203420342034203420343C
:1021040000344B34453452344F34533445344E3414
:1021140045343A34203420342034203420344C34B0
:102124007434733420342034203420340034523452
:102134004934533445343A342034203420344B3435
:1021440067342034203420342034203420342034A4
:10215400203420342034003453345534473441344B
:1021640052343A342034203420344B34673420340D
:1021740020342034203420342034203420342034BB
:1021840000345534533445345234313420344134DA
:102194004D344F3455344E3454343A34203420348E
:1021A4002034203420342034203400345534533443
:1021B400453452343234203441344D344F34553460
:1021C4004E3454343A3420342034203420342034EF
:1021D40020342034003455345334453452343334A9
:1021E400203441344D344F3455344E3454343A341D
:1021F400203420342034203420342034203400345B
:1022040052344934533445343A342034203420345D
:102214002034203420344B346734203420342034A8
:10222400203420342034203400344B3445345234A8
:102234004F34533445344E3445343A342034203406
:1022440020344C3474347334203420342034203417
:102254002034003420342034203420345334543493
:102264004F3443344B3420344434453454344134AF
:1022740049344C345334203420342034003443342F
:1022840072346F3470342034633472346F34733482
:10229400733465346434203473347434613467348F
:1022A400653431340034433472346F347034203440
:1022B400633472346F347334733465346434203467
:1022C40073347434613467346534323400344334E1
:1022D40072346F3470342034633472346F34733432
:1022E400733465346434203473347434613467343F
:1022F400653433340034413454342B3443344E3451
:102304004D3449343D3432342C3432342C3430346A
:102314002C3430342C3430340D34003453344D34B4
:1023240041345234543420344334413452344434E8
:102334002034203420342034203420342034003419
:10234400203420342034433441345234443420344F
:10235400533459345334543445344D3420342034B4
:102364002034003450344C344534413453344534EF
:102374002034543441345034203459344F34553497
:1023840052342034203400344134553454344F34DE
:102394004D34413454344934433420345234413478
:1023A400543449344F344E342034003450344C3493
:1023B4005334203457344134493454342E342E3475
:1023C4002E342E342E342E342E342E34003447340E
:1023D40053344D34203449344E344934543449341C
:1023E40041344C3449345A3449344E34473400343B
:1023F40052346934733465342034533474346F3450
:1024040063346B343A340034413454342B3443341D
:102414004D34473446343D3431340D340034413482
:1024240054342B3443345334443448343D343134F9
:102434000D340034413454342B344334503449344F
:102444004E343F340D340034473453344D34203447
:1024540052344534413444345934003453345434BC
:102464004F3443344B34003420344B3467347334A6
:0A2474000034413454340D340034B8
:02400E00E22CA2
:104200000A00000032000A00080000000000000060
:104210000A0000001E000800060000000000000068
:104220000A00000014000400050000000000000067
:104230000A000000FF00C800C800000000000000E5
:00000001FF
