:060000000A128A110E280D
:10000800FE000308F3000408F4000A08F5000A12C9
:100018008A15332D0A128A11DE2F831603178801D9
:100028008901013003138800831288018F308316F9
:10003800870083128701C0308B000A128A15782442
:100048000A128A110A128A11E1250A128A110A1261
:100058008A15AE250A128A110A128A156A240A120A
:100068008A110A128A118B250A128A1120308316E6
:1000780003138C000A128A15C8250A128A11071858
:100088006A28DE30D8009130D9000A128A113E263B
:100098000A128A11C0300A128A1126260A128A11F7
:1000A800A830D8009130D9000A128A113E260A12C7
:1000B8008A110630E8000E30E700B030E600E60BA3
:1000C8006328E70B6328E80B632876100A128A1561
:1000D8006C250A128A11D4300A128A1126260A12AD
:1000E8008A11C730D800D9010A128A113E260A128D
:1000F8008A11A030D30037300A128A1599240A12BF
:100108008A1154085304031D8E28A601A60AA701C4
:10011800B701672CAD30D30037300A128A159924FD
:100128000A128A1154085304031D9C280230A92876
:10013800BA30D30037300A128A1599240A128A1164
:1001480054085304031D672C0330A6008B280A1299
:100158008A15EB250A128A1180300A128A1126267E
:100168000A128A11DB30D8009030D9000A128A119D
:100178003E260A128A112908E2002808E1008D307B
:100188000A128A115A260A128A11C0300A128A11D2
:1001980026260A128A11B130D8009030D9000A12E6
:1001A8008A113E260A128A112F08D800C5300A1271
:1001B8008A1101250A128A1194300A128A112626F8
:1001C8000A128A11C630D8009030D9000A128A1152
:1001D8003E260A128A113008D8009A300A128A116B
:1001E80025250A128A11D4300A128A1126260A12E3
:1001F8008A112F30D8009130D9000A128A113E2670
:100208000A128A112E08D800DD300A128A11DD245C
:100218000A128A113330E8008930E7000030E6001E
:10022800E60B1429E70B1429E80B1429831203138E
:100238002F08A202031CA3033008A402031CA50371
:100248002E08A002031CA1036430D800D90123089A
:10025800DB002208DA000A128A15A2270A128A117C
:100268005808E10018300A128A15B7240A128A11B0
:10027800643083120313D300D4012308D600220864
:10028800D5000A128A157E270A128A115308E1003E
:1002980019300A128A15B7240A128A118312031315
:1002A8002408E1001A300A128A15B7240A128A11A2
:1002B800831203132008E1001B300A128A15B724A1
:1002C8000A128A11CE3083120313A807031CA9034C
:1002D8006430D900DA012908DC002808DB000A129A
:1002E8008A112D270A128A115908E10000300A12D2
:1002F8008A15B7240A128A11643083120313D300B3
:10030800D4012908D6002808D5000A128A11D72650
:100318000A128A115308E10001300A128A15B7241B
:100328000A128A11831203132F08E10002300A12FD
:100338008A15B7240A128A11831203133008E100C0
:1003480003300A128A15B7240A128A11831203137A
:100358002E08E10004300A128A15B7240A128A11FD
:1003680001300A128A1126260A128A111430D8007E
:100378009230D9000A128A113E260A128A11C03018
:100388000A128A1126260A128A11F030D8009130F2
:10039800D9000A128A113E260A128A1194300A12CA
:1003A8008A1126260A128A11BA30D8009130D9004B
:1003B8000A128A113E260A128A110630E8000E3007
:1003C800E700B030E600E60BE729E70BE729E80B82
:1003D800E7298312031307127F30E8005630E7003D
:1003E8008430E600E60BF629E70BF629E80BF62938
:1003F800FD29831203130716A601A701752C0A12FB
:100408008A15EB250A128A1180300A128A112626CB
:100418000A128A11F030D8009030D9000A128A11D5
:100428003E260A128A112B08E2002A08E1008D30C4
:100438000A128A115A260A128A11C0300A128A111F
:1004480026260A128A11B130D8009030D9000A1233
:100458008A113E260A128A113208D800C5300A12BB
:100468008A1101250A128A1194300A128A11262645
:100478000A128A11C630D8009030D9000A128A119F
:100488003E260A128A113308D8009A300A128A11B5
:1004980025250A128A11D4300A128A1126260A1230
:1004A8008A112F30D8009130D9000A128A113E26BD
:1004B8000A128A113108D800DD300A128A11DD24A7
:1004C8000A128A113330E8008930E7000030E6006C
:1004D800E60B6C2AE70B6C2AE80B6C2A83120313D1
:1004E8003208A202031CA3033308A402031CA503B9
:1004F8003108A002031CA1036430D800D9012308E5
:10050800DB002208DA000A128A15A2270A128A11C9
:100518005808E10018300A128A15B7240A128A11FD
:10052800643083120313D300D4012308D6002208B1
:10053800D5000A128A157E270A128A115308E1008B
:1005480019300A128A15B7240A128A118312031362
:100558002408E1001A300A128A15B7240A128A11EF
:10056800831203132008E1001B300A128A15B724EE
:100578000A128A11E23083120313AA07031CAB0381
:100588006430D900DA012B08DC002A08DB000A12E3
:100598008A112D270A128A115908E10008300A1217
:1005A8008A15B7240A128A11643083120313D30000
:1005B800D4012B08D6002A08D5000A128A11D7269A
:1005C8000A128A115308E10009300A128A15B72461
:1005D8000A128A11831203133208E1000A300A1240
:1005E8008A15B7240A128A11831203133308E1000B
:1005F8000B300A128A15B7240A128A1183120313C0
:100608003108E1000C300A128A15B7240A128A113F
:1006180001300A128A1126260A128A111430D800CB
:100628009230D9000A128A113E260A128A11C03065
:100638000A128A1126260A128A11F030D80091303F
:10064800D9000A128A113E260A128A1194300A1217
:100658008A1126260A128A11BA30D8009130D90098
:100668000A128A113E260A128A110630E8000E3054
:10067800E700B030E600E60B3F2BE70B3F2BE80B1B
:100688003F2B831203130712CB30E8002330E70017
:100698000930E600E60B4E2BE70B4E2BE80B4E2BF2
:1006A8006400FD290A128A15EB250A128A11803086
:1006B8000A128A1126260A128A110530D8009130AA
:1006C800D9000A128A113E260A128A112D08E20060
:1006D8002C08E1008D300A128A115A260A128A1152
:1006E800C0300A128A1126260A128A11B130D8009F
:1006F8009030D9000A128A113E260A128A1135084A
:10070800D800C5300A128A1101250A128A119430BC
:100718000A128A1126260A128A11C630D800903089
:10072800D9000A128A113E260A128A113608D80000
:100738009A300A128A1125250A128A11D4300A120F
:100748008A1126260A128A112F30D8009130D90032
:100758000A128A113E260A128A113408D800DD309E
:100768000A128A11DD240A128A113330E80089300E
:10077800E7000030E600E60BBF2BE70BBF2BE80BCA
:10078800BF2B831203133508A202031CA3033608E8
:10079800A402031CA5033408A002031CA1036430AF
:1007A800D800D9012308DB002208DA000A128A15CA
:1007B800A2270A128A115808E10018300A128A156D
:1007C800B7240A128A11643083120313D300D401A8
:1007D8002308D6002208D5000A128A157E270A1295
:1007E8008A115308E10019300A128A15B7240A122F
:1007F8008A11831203132408E1001A300A128A1599
:10080800B7240A128A11831203132008E1001B304F
:100818000A128A15B7240A128A11EC3083120313BC
:10082800AC07031CAD036430D900DA012D08DC00E5
:100838002C08DB000A128A112D270A128A1159087E
:10084800E10010300A128A15B7240A128A1164309E
:1008580083120313D300D4012D08D6002C08D50029
:100868000A128A11D7260A128A115308E100113098
:100878000A128A15B7240A128A118312031335083B
:10088800E10012300A128A15B7240A128A1183125B
:1008980003133608E10013300A128A15B7240A1226
:1008A8008A11831203133408E10014300A128A15DE
:1008B800B7240A128A1101300A128A1126260A124E
:1008C8008A118030B5292708003A031D752C26089F
:1008D800013A0319AB28033A0319032A013A031909
:1008E800562B0A128A15C8250A128A110A128A1565
:1008F800A0260A128A11871C862C0A128A114925F9
:100908000A128A110D30E800A330E700BD30E60076
:10091800E60B8C2CE70B8C2CE80B8C2C64009B30A2
:1009280083120313D3009230D400C730D5000530AA
:10093800D600D7010A128A15FD240A128A11540812
:1009480053040319F618A92CF614871DDA2C0A305B
:10095800E10018300A128A15B7240A128A11831284
:100968000313E10119300A128A15B7240A128A11F1
:10097800FF3083120313E1001A300A128A15B724D4
:100988000A128A11C83083120313E1001B300A12BD
:100998008A15B7240A128A110A128A15C8250A125A
:1009A8008A110A128A1149250A128A11871D3E28BE
:1009B800DA2CD90026260A128A110A30D3005808E0
:1009C80096270A128A15CC270A128A110A168A1142
:1009D80000200A128A1114270A128A110A30D30039
:1009E8005808B1270A128A15CC270A128A110A1642
:1009F8008A1100200A128A11142FD90026260A12F9
:100A08008A110A30D300580896270A128A15CC276B
:100A18000A128A110A168A1100200A128A1114274A
:100A28000A128A110A30D3005808B1270A128A1507
:100A3800CC270A128A110A168A1100200A128A1172
:100A4800142FD90026260A128A110A30D300580812
:100A580096270A128A15CC270A128A110A168A11B1
:100A680000200A128A1114270A128A110A30D300A8
:100A78005808B1270A128A15CC270A128A110A16B1
:100A88008A1100200A128A11142F803026260A1291
:100A98008A114430D8009130D9003E260A128A11B2
:100AA800C03026260A128A111A30D8009130D9008F
:100AB8003E260A128A112308E2002208E100C53006
:100AC8005A260A128A11943026260A128A1185306B
:100AD800D8009030D9003E260A128A112508E20073
:100AE8002408E1009A305A260A128A11D4302626A0
:100AF8000A128A119B30D8009030D9003E260A127B
:100B08008A112108E2002008E100DD305A2E8030E9
:100B180026260A128A110230D8009230D9003E26C1
:100B28000A128A11C03026260A128A11CC30D8003F
:100B38009130D9003E260A128A111A30DC0045305D
:100B4800DB007E30DA00DA0BA72DDB0BA72DDC0BE0
:100B5800A72D013026260A128A110D30DC00A33099
:100B6800DB00BD30DA00DA0BB72DDB0BB72DDC0B61
:100B7800B72D6400803026260A128A11DE30D8008C
:100B88009130D9003E260A128A11C03026260A1250
:100B98008A11A830D8009130D9003E260A128A114D
:100BA8001A30DC004530DB007E30DA00DA0BDA2D53
:100BB800DB0BDA2DDC0BDA2D0800003072270A1265
:100BC8008A118230D900DD30D800D80BE92DD90B35
:100BD800E92DEE2D033026260A128A112130D9007C
:100BE8007630D800D80BF62DD90BF62D64000330DB
:100BF80026260A128A114830D9006C30D800D80B42
:100C0800032ED90B032E6400033026260A128A11FC
:100C1800023026260A128A11023026260A128A1162
:100C2800283026260A128A11003026260A128A112E
:100C38000C3026260A128A11003026260A128A113A
:100C48000630262E83120313D700570E0F39D6000D
:100C58000F30D6055708D5000F30D505560872272E
:100C68000A128A1188270A128A11550872270A124D
:100C78008A11882F5908FF00580884000A168A111B
:100C880000200A128A110038031908005908FF00C9
:100C9800580884000A168A1100200A128A1114279B
:100CA8000A128A11D80A0319D90A3E2EE300262609
:100CB8000A128A11E830D9000330DA006208DC0031
:100CC8006108DB002D2759080A128A15CC270A1259
:100CD8008A110A168A1100200A128A1114270A1288
:100CE8008A116430D900DA01CD270A128A11D72671
:100CF8000A128A115408DC005308DB002D27590812
:100D08000A128A15CC270A128A110A168A1100209B
:100D18000A128A1114270A128A110A30D900DA0134
:100D2800CD270A128A11D7260A128A11D6270A1243
:100D38008A11D7260A128A115408DC005308DB00EE
:100D48002D2759080A128A15CC270A128A110A1661
:100D58008A1100200A128A1114270A128A11CD2733
:100D68000A128A11D7260A128A11D6270A128A115C
:100D7800D7260A128A115408E5005308E4000A30FD
:100D8800D300D4016508D6006408D500D7265308D7
:100D98000A128A15CC270A128A110A168A1100200B
:100DA8000A128A11142FD801D61FE12ED509D609A7
:100DB800D50A0319D60AD801D80AD41FE82ED309B0
:100DC800D409D30A0319D40A540853040319072F62
:100DD800D701D70AD41BF42E0310D30DD40DED2E52
:100DE80054085602031DFA2E53085502031C032FFC
:100DF8005308D5025408031CD603D6020310D40C9A
:100E0800D30CD70BF42E580803190F2FD509D60980
:100E1800D50A0319D60A5608D4005508D300080085
:100E2800D700570E0F39D6000F30D6055708D50012
:100E38000F30D5050815560872270A128A11882717
:100E48000A128A11550872270A128A11882708116E
:100E58000800DE01DA1F372FD909DA09D90A031980
:100E6800DA0ADE01DE0ADC1F402FDB09DC09DB0AB7
:100E78000319DC0A0130DE06DF01E0015A085904D3
:100E88000319652FDD01DD0ADA1B4E2F0310D90D7A
:100E9800DA0D472F0310DF0DE00D5A085C02031D21
:100EA800572F59085B02031C612F5908DB025A08A7
:100EB800031CDC03DC025F140310DA0CD90CDD0B15
:100EC8004E2F5E0803196D2FDF09E009DF0A0319A9
:100ED800E00A6008DA005F08D9000800D300531C54
:100EE800772F0816782F0812D31C7C2F88167D2F91
:100EF8008812531D812F0817822F0813D31D862FA0
:100F0800881708008813080088151A30D400F830AC
:100F1800D300D30B8D2FD40B8D2F640083120313B2
:100F280088110800D400D60153080319AF2FD50142
:100F3800D50AD31BA22F0310D30D9C2F0310D60D57
:100F480053085402031CAC2F5308D4025614031040
:100F5800D30CD50BA22F56080800D5000830D600B0
:100F6800D7015508D40007300310D40CFF3E0310F6
:100F7800031DB92F570D5404D7000310D50D53087E
:100F88005702031CC92F5308D702D60BB52F570891
:100F980008006208D6006108D500E830D3000330A5
:100FA800D40008005408D6005308D5006430D30094
:100FB800D4010800F601F701831320308400533070
:100FC8000A128A1562240A128A11C7308400DB309B
:100FD8000A128A1562240A128A11C730FD000C30E1
:100FE800FE00D630FF00A03084000A128A158C2437
:080FF80083010A128A1111287D
:1018C40064008001840A0406031900340406632CAE
:1018D40003138814081483168810081483128814B8
:1018E400A930D300D30B742C772C0800FF30870069
:1018F400803083168700243098009030831298003B
:1019040081308316990083129A0108007E088A00A8
:101914007F08820088240A128A158000840A040839
:101924007D0603190034FF0A0319FE0A8C2CD80023
:10193400A12C5808D80A840080080319B12C530834
:10194400D30A840083130008D500580884000008D3
:10195400D60055085602D700D70803199B2C570800
:10196400D300D401D31BD4030800E2008316031769
:101974008C18B82C83120313620803178D00031309
:10198400610803178C003F3083168C0503108B1BF2
:1019940003148B130C1555308D00AA308D008C1454
:1019A4000C1103188B1708003134433430343034AD
:1019B40038343234433445343634393433343934B6
:1019C40000343134423430343034333443343534F5
:1019D40042344634433438343034003431344234BD
:1019E400303430343334433435344234463443347D
:1019F4003834313400340130D6020030031CD703AC
:101A0400D702560A0319570A0319302D55088400C2
:101A140083130008D8005408FF00530884000A16F2
:101A24008A1100200A128A15580603192B2D54080E
:101A3400FF00530884000A168A110020D8005508B4
:101A44008400831300085802D300D401031CD40378
:101A54000800D30A0319D40AD50AFD2CD301D401F2
:101A64000800831203138C1E3A2DF610C730432549
:101A740075088A007408840073088300FE0E7E0EC5
:101A84000900F100F00164250A128A15F200233AD4
:101A9400031D522DF001F00A64250A128A15F20082
:101AA400700803195B2D7108840072088313800089
:101AB400F10A72080A3A031D452D71088400831344
:101AC40080010800981C682D181218168C1E682DA9
:101AD4001A08080076180800AB25D601D701AB25F3
:101AE4005608373E84008A250A128A15831380001B
:101AF400D60A0319D70A5708803AFF0080307F02BC
:101B0400031D862D0C305602031C712D761408001B
:101B1400D40108188B2D5430D300D30B8F2D922D64
:101B2400AB25D501D50AA930D300D30B972D9A2D17
:101B3400AB2555080818D4040310D50DD508031D8A
:101B4400952DA930D300D30BA52DA82DAB25540872
:101B54000800831203130800003062260A128A1553
:101B640099260A128A1580260A128A1501306226DD
:101B74000A128A15023062260A128A1599260A1256
:101B84008A1580260A128A150330622E18306226BE
:101B94000A128A1599260A128A1580260A128A15AB
:101BA4005708A3005608A200193062260A128A15A3
:101BB4000313A2070318A30A1A3062260A128A150D
:101BC4000313A400A5011B3062260313A000A10186
:101BD4000800003062260A128A1599260A128A150C
:101BE40080260A128A155708A9005608A800013051
:101BF40062260A128A150313A8070318A90A0830D3
:101C040062260A128A1599260A128A1580260A1251
:101C14008A155708AB005608AA00093062260A1232
:101C24008A150313AA070318AB0A103062260A1296
:101C34008A1599260A128A1580260A128A155708C7
:101C4400AD005608AC00113062260A128A1503133F
:101C5400AC070318AD0A023062260A128A15031370
:101C6400AF000A3062260A128A150313B20012303A
:101C740062260A128A150313B500043062260A127A
:101C84008A150313AE000C3062260A128A15031358
:101C9400B100143062260A128A150313B40003300B
:101CA40062260A128A150313B0000B3062260A1248
:101CB4008A150313B300133062260313B600080019
:101CC40083120313D5006400831603178C18652E42
:101CD40083120313550803178D003F3083168C05B8
:101CE4000C1403100C180314003003180130831271
:101CF4000313D300D40103170C080800DA01DB0135
:101D0400561C8A2E5808DA070318DB0A5908DB0721
:101D14000310D80DD90D0310D70CD60C5708560450
:101D2400031D822E5B08D7005A08D600080003134F
:101D3400D600D7016430D800D9010800E830D800B3
:101D44000330D9002308DB002208DA00A2270A1294
:101D54008A155808CC270A168A1100200A128A15F7
:101D6400C6006430D800D901DF270A128A157E27FD
:101D74000A128A155408DB005308DA00A2270A1253
:101D84008A155808CC270A168A1100200A128A15C7
:101D9400C7000A30D800D901DF270A128A157E2726
:101DA4000A128A15F0270A128A157E270A128A1542
:101DB4005408DB005308DA00A2270A128A155808CF
:101DC400CC270A168A1100200A128A15C800DF27B8
:101DD4000A128A157E270A128A15F0270A128A1512
:101DE4007E270A128A15D3270A128A157E270A1219
:101DF4008A155308CC270A168A1100200A128A155C
:101E0400C9006430D800D9012508DB002408DA00B1
:101E1400A2270A128A155808CC270A168A1100200C
:101E24000A128A15CF000A30D800D901E8270A120D
:101E34008A157E270A128A155408DB005308DA0033
:101E4400A2270A128A155808CC270A168A110020DC
:101E54000A128A15D000E8270A128A157E270A1268
:101E64008A15D3270A128A157E270A128A1553085F
:101E7400CC270A168A1100200A128A15D100643070
:101E8400D800D9012108DB002008DA00A2270A12B1
:101E94008A155808CC270A168A1100200A128A15B6
:101EA400CB000A30D800D901F8270A128A157E27F8
:101EB4000A128A155408DB005308DA00A2270A1212
:101EC4008A155808CC270A168A1100200A128A1586
:101ED400CC00F8270A128A157E270A128A15D327FE
:101EE4000A128A157E270A128A155308CC270A1665
:101EF4008A110020CD0008005408530403199D2FB3
:101F0400D701D70AD41B8A2F0310D30DD40D832FE6
:101F140054085602031D902F53085502031C992F91
:101F24005308D5025408031CD603D6020310D40C5C
:101F3400D30CD70B8A2F5608D4005508D3000800B9
:101F4400DC01DD01590858040319C72FDE01DE0A3C
:101F5400D91BB02F0310D80DD90DA92F0310DC0DF8
:101F6400DD0D59085B02031DB92F58085A02031CE2
:101F7400C32F5808DA025908031CDB03DB025C1484
:101F84000310D90CD80CDE0BB02F5D08D9005C0807
:101F9400D8000800123E840090300318013EFF0070
:101FA40008005408E0005308DF000A30D300D401CD
:101FB4006008D6005F08D50008002308D600220870
:101FC400D500E830D3000330D40008002508D6003B
:101FD4002408D5006430D300D40108005408D60086
:101FE4005308D5006430D300D40108002108D6007A
:101FF4002008D5006430D300D4010800FF1B0A2850
:1020040083137F1883170008840A0319FF0A080042
:102014007F087F398A000408840A0319FF0A8200B2
:102024003034313432343334343435343634373470
:102034003834393400346D346F346934733474345F
:102044006534723420346C346534763465346C34DD
:102054002034683469346734683420346D346F3420
:1020640074346534723420344F3446344634003486
:102074006D346F3469347334743465347234203499
:102084006C346534763465346C3420346C346F3499
:10209400773420346D346F347434653472342034BE
:1020A4004F344E340034413454342B3443344D349F
:1020B400473453343D3422342B34393431343934B5
:1020C40038343934343437343434383432343034C2
:1020D400303422340034413454342B3443344D34BA
:1020E400473453343D3422342B3439343134393485
:1020F400373439343034303438343034353431349E
:102104003034223400345334553447344134523457
:102114003A3420342034203420344B34673420348F
:10212400203420342034203420342034203420340B
:1021340000344B34453452344F34533445344E34E4
:1021440045343A34203420342034203420344C3480
:102154007434733420342034203420340034523422
:102164004934533445343A342034203420344B3405
:102174006734203420342034203420342034203474
:10218400203420342034003453345534473441341B
:1021940052343A342034203420344B3467342034DD
:1021A400203420342034203420342034203420348B
:1021B40000345534533445345234313420344134AA
:1021C4004D344F3455344E3454343A34203420345E
:1021D4002034203420342034203400345534533413
:1021E400453452343234203441344D344F34553430
:1021F4004E3454343A3420342034203420342034BF
:102204002034203400345534533445345234333478
:10221400203441344D344F3455344E3454343A34EC
:10222400203420342034203420342034203400342A
:1022340052344934533445343A342034203420342D
:102244002034203420344B34673420342034203478
:10225400203420342034203400344B344534523478
:102264004F34533445344E3445343A3420342034D6
:1022740020344C34743473342034203420342034E7
:102284002034003420342034203420345334543463
:102294004F3443344B34203444344534543441347F
:1022A40049344C34533420342034203400344334FF
:1022B40072346F3470342034633472346F34733452
:1022C400733465346434203473347434613467345F
:1022D400653431340034433472346F347034203410
:1022E400633472346F347334733465346434203437
:1022F40073347434613467346534323400344334B1
:1023040072346F3470342034633472346F34733401
:10231400733465346434203473347434613467340E
:10232400653433340034413454342B3443344E3420
:102334004D3449343D3432342C3432342C3430343A
:102344002C3430342C3430340D34003453344D3484
:1023540041345234543420344334413452344434B8
:1023640020342034203420342034203420340034E9
:1023740020342034203420342034203456344F3454
:102384004C34553445342034203420342034203423
:102394002034003420342034203443344134523443
:1023A40044342034533459345334543445344D3440
:1023B400203420342034003450344C3445344134F7
:1023C4005334453420345434413450342034593453
:1023D4004F345534523420342034003420344334C0
:1023E40041344E3420344F344E3420344B3445344D
:1023F40052344F34533445344E344534203400344D
:102404004134553454344F344D34413454344934C4
:102414004334203452344134543449344F344E34E8
:1024240020340034203450344C3445344134533453
:10243400453420344B3445344534503420345934F5
:102444004F3455345234003450344C3453342034E3
:1024540057344134493454342E342E342E342E34EB
:102464002E342E342E342E340034473453344D3429
:10247400203449344E3449345434493441344C348E
:1024840049345A3449344E34473400344B34653477
:1024940072346F34733465346E3465342034533499
:1024A40074346F3463346B343A34003453347534D5
:1024B4006734613472342034533474346F34633485
:1024C4006B343A3400345234693473346534203410
:1024D400533474346F3463346B343A3400344134D9
:1024E40054342B3443344D34473446343D3431343E
:1024F4000D340034413454342B3443345334443491
:1025040048343D3431340D340034413454342B34A4
:102514004334503449344E343F340D34003447345A
:1025240053344D34203452344534413444345934D2
:102534000034533454344F3443344B340034203453
:102544004B3467347334003420344C34743473346F
:0A2554000034413454340D340034D7
:02400E00E22CA2
:104200000A00000032000A00080000000000000060
:104210000A0000001E000800060000000000000068
:104220000A00000014000400050000000000000067
:104230000A000000FF00C800C800000000000000E5
:00000001FF
