:060000000A128A11122809
:10000800FE000308F4000408F5000A08F60083124D
:1000180003137F08F7000A168A11BE2B0A168A11E5
:10002800042E8316031788018901013083160313F0
:1000380088008312031388018F3083160313870007
:10004800831203138701C0308B000A128A1502201D
:100058000A128A110A128A156B210A128A110A12C7
:100068008A15C0200A128A110A168A1178230A12E0
:100078008A110A128A15AA220A128A110A128A15E4
:1000880029250A128A112030831603138C004C2864
:100098000A168A1113270A128A11831203130718E2
:1000A800562857288128E930CF009930D0000A1601
:1000B8008A11D2240A128A11C0300A168A112C25F4
:1000C8000A128A11B33083120313CF009930D0007B
:1000D8000A168A11D2240A128A11063083120313CF
:1000E800DF000E30DE00B030DD00DD0B7928DE0BDE
:1000F8007928DF0B79287B1081280A168A11C725F1
:100108000A128A11D4300A168A112C250A128A1169
:10011800AF3083120313CF000030D0000A168A11C3
:10012800D2240A128A11623083120313DD005D089B
:10013800C800C3300A168A117B240A128A11831256
:10014800031349084804031DAA28AB28B72801301F
:10015800A6000030A70003100030031801308316F2
:100168000313C300602ED2308312DD005D08C8007F
:10017800C3300A168A117B240A128A1183120313C8
:1001880049084804031DC928CA28D6280230A600F1
:100198000030A70003100030031801308316031342
:1001A800C300602EDF308312DD005D08C800C33055
:1001B8000A168A117B240A128A118312031349082A
:1001C8004804031DE828E928602E0330A600003003
:1001D800A700031000300318013083160313C3006F
:1001E800602E602E602E602E0A128A1547240A128D
:1001F8008A1180300A168A112C250A128A11E630D3
:1002080083120313CF009830D0000A168A11D22423
:100218000A128A11831203132908D901D907280859
:10022800D801D8078D300A128A110A270A128A11B2
:10023800C0300A168A112C250A128A11BC30831282
:100248000313CF009830D0000A168A11D2240A125C
:100258008A11831203133308DD005D08D800C53006
:100268000A128A1518200A128A1194300A168A115D
:100278002C250A128A11D13083120313CF0098302B
:10028800D0000A168A11D2240A128A118312031383
:100298003408DD005D08D8009A300A168A11AC27A8
:1002A8000A128A11D4300A168A112C250A128A11C8
:1002B8003A3083120313CF009930D0000A168A11FE
:1002C800D2240A128A11831203133208DD005D0852
:1002D800D800DD300A128A156C200A128A11CB3038
:1002E80083120313DF002330DE000930DD00DD0B4D
:1002F8007B29DE0B7B29DF0B7B2964008312031328
:100308003308DD00DE01DD09DE09DD0A0319DE0A36
:1003180022085D07A20023080318230A5E07A3002A
:100328003408DD00DE01DD09DE09DD0A0319DE0A15
:1003380024085D07A40025080318250A5E07A50000
:100348003208DD00DE01DD09DE09DD0A0319DE0AF7
:1003580020085D07A00021080318210A5E07A100F4
:100368006430CE000030CF002308D101D107220825
:10037800D001D0070A168A115A270A128A11831245
:1003880003134E08DD005D08D80018300A168A11DC
:100398008C250A128A11643083120313C8000030B6
:1003A800C9002308CB01CB072208CA01CA070A16CD
:1003B8008A11CD260A128A11831203134808DD0018
:1003C8005D08D80019300A168A118C250A128A117C
:1003D800831203132408DD005D08D8001A300A16BA
:1003E8008A118C250A128A11831203132008DD0052
:1003F8005D08D8001B300A168A118C250A128A114A
:10040800831203132808CE3EA80029080318013ECA
:10041800FF3EA9006430CF000030D0002908D20187
:10042800D2072808D101D1070A128A1520230A12F7
:100438008A11831203134F08DD005D08D8000030CD
:100448000A168A118C250A128A1164308312031342
:10045800C8000030C9002908CB01CB072808CA0109
:10046800CA070A128A15CF210A128A1183120313A6
:100478004808DD005D08D80001300A168A118C256D
:100488000A128A11831203133308DD005D08D800AD
:1004980002300A168A118C250A128A118312031354
:1004A8003408DD005D08D80003300A168A118C254F
:1004B8000A128A11831203133208DD005D08D8007E
:1004C80004300A168A118C250A128A1101300A167C
:1004D8008A112C250A128A111F3083120313CF00A8
:1004E8009A30D0000A168A11D2240A128A11C03012
:1004F8000A168A112C250A128A11FB30831203135B
:10050800CF009930D0000A168A11D2240A128A1113
:1005180094300A168A112C250A128A11C5308312C2
:100528000313CF009930D0000A168A11D2240A1278
:100538008A11063083120313DF000E30DE00B0305C
:10054800DD00DD0BA52ADE0BA52ADF0BA52A831209
:10055800031307127F30DF005630DE008430DD00E1
:10056800DD0BB42ADE0BB42ADF0BB42ABB2A8312B4
:10057800031307160030A6000030A700712E0A12D8
:100588008A1547240A128A1180300A168A112C25E6
:100598000A128A11FB3083120313CF009830D0005F
:1005A8000A168A11D2240A128A11831203132B08FD
:1005B800D901D9072A08D801D8078D300A128A111B
:1005C8000A270A128A11C0300A168A112C250A1223
:1005D8008A11BC3083120313CF009830D0000A165A
:1005E8008A11D2240A128A11831203133608DD00F5
:1005F8005D08D800C5300A128A1518200A128A1117
:1006080094300A168A112C250A128A11D1308312C5
:100618000313CF009830D0000A168A11D2240A1288
:100628008A11831203133708DD005D08D8009A3059
:100638000A168A11AC270A128A11D4300A168A11AE
:100648002C250A128A113A3083120313CF009930ED
:10065800D0000A168A11D2240A128A1183120313AF
:100668003508DD005D08D800DD300A128A156C20D7
:100678000A128A11CB3083120313DF002330DE0005
:100688000930DD00DD0B462BDE0B462BDF0B462B3E
:100698006400831203133608DD00DE01DD09DE097C
:1006A800DD0A0319DE0A22085D07A20023080318E1
:1006B800230A5E07A3003708DD00DE01DD09DE0935
:1006C800DD0A0319DE0A24085D07A40025080318BB
:1006D800250A5E07A5003508DD00DE01DD09DE0913
:1006E800DD0A0319DE0A20085D07A00021080318A7
:1006F800210A5E07A1006430CE000030CF00230835
:10070800D101D1072208D001D0070A168A115A2729
:100718000A128A11831203134E08DD005D08D800FF
:1007280018300A168A118C250A128A11643083122D
:100738000313C8000030C9002308CB01CB072208E7
:10074800CA01CA070A168A11CD260A128A1183120B
:1007580003134808DD005D08D80019300A168A110D
:100768008C250A128A11831203132408DD005D0800
:10077800D8001A300A168A118C250A128A11831297
:1007880003132008DD005D08D8001B300A168A1103
:100798008C250A128A11831203132A08E23EAA0042
:1007A8002B080318013EFF3EAB006430CF00003039
:1007B800D0002B08D201D2072A08D101D1070A128A
:1007C8008A1520230A128A11831203134F08DD00A9
:1007D8005D08D80008300A168A118C250A128A1179
:1007E800643083120313C8000030C9002B08CB0102
:1007F800CB072A08CA01CA070A128A15CF210A128A
:100808008A11831203134808DD005D08D8000930F7
:100818000A168A118C250A128A11831203133608C4
:10082800DD005D08D8000A300A168A118C250A12E4
:100838008A11831203133708DD005D08D8000B30D6
:100848000A168A118C250A128A1183120313350895
:10085800DD005D08D8000C300A168A118C250A12B2
:100868008A1101300A168A112C250A128A111F30A2
:1008780083120313CF009A30D0000A168A11D224AB
:100888000A128A11C0300A168A112C250A128A11F6
:10089800FB3083120313CF009930D0000A168A1157
:1008A800D2240A128A1194300A168A112C250A12A7
:1008B8008A11C53083120313CF009930D0000A166D
:1008C8008A11D2240A128A11063083120313DF0018
:1008D8000E30DE00B030DD00DD0B702CDE0B702C2E
:1008E800DF0B702C831203130712CB30DF00233089
:1008F800DE000930DD00DD0B7F2CDE0B7F2CDF0BEB
:100908007F2C64008312031307160030A600003002
:10091800A700712E0A128A1547240A128A118030FC
:100928000A168A112C250A128A1110308312031311
:10093800CF009930D0000A168A11D2240A128A11DF
:10094800831203132D08D901D9072C08D801D80719
:100958008D300A128A110A270A128A11C0300A1623
:100968008A112C250A128A11BC3083120313CF0076
:100978009830D0000A168A11D2240A128A118312DA
:1009880003133908DD005D08D800C5300A128A153E
:1009980018200A128A1194300A168A112C250A1274
:1009A8008A11D13083120313CF009830D0000A1671
:1009B8008A11D2240A128A11831203133A08DD001D
:1009C8005D08D8009A300A168A11AC270A128A11D3
:1009D800D4300A168A112C250A128A113A30831249
:1009E8000313CF009930D0000A168A11D2240A12B4
:1009F8008A11831203133808DD005D08D800DD3042
:100A08000A128A156C200A128A11CB30831203133A
:100A1800DF002330DE000930DD00DD0B112DDE0B99
:100A2800112DDF0B112D6400831203133908DD002B
:100A3800DE01DD09DE09DD0A0319DE0A22085D0789
:100A4800A20023080318230A5E07A3003A08DD0062
:100A5800DE01DD09DE09DD0A0319DE0A24085D0767
:100A6800A40025080318250A5E07A5003808DD003C
:100A7800DE01DD09DE09DD0A0319DE0A20085D074B
:100A8800A00021080318210A5E07A1006430CE00E7
:100A98000030CF002308D101D1072208D001D007A8
:100AA8000A168A115A270A128A11831203134E084A
:100AB800DD005D08D80018300A168A118C250A1244
:100AC8008A11643083120313C8000030C900230858
:100AD800CB01CB072208CA01CA070A168A11CD26FC
:100AE8000A128A11831203134808DD005D08D80032
:100AF80019300A168A118C250A128A1183120313D7
:100B08002408DD005D08D8001A300A168A118C25E1
:100B18000A128A11831203132008DD005D08D80029
:100B28001B300A168A118C250A128A1183120313A4
:100B38002C08EC3EAC002D080318013EFF3EAD002A
:100B48006430CF000030D0002D08D201D2072C0825
:100B5800D101D1070A128A1520230A128A11831299
:100B680003134F08DD005D08D80010300A168A11FB
:100B78008C250A128A11643083120313C8000030CE
:100B8800C9002D08CB01CB072C08CA01CA070A12D5
:100B98008A15CF210A128A11831203134808DD002F
:100BA8005D08D80011300A168A118C250A128A119C
:100BB800831203133908DD005D08D80012300A16C5
:100BC8008A118C250A128A11831203133A08DD0050
:100BD8005D08D80013300A168A118C250A128A116A
:100BE800831203133808DD005D08D80014300A1694
:100BF8008A118C250A128A1101300A168A112C25AD
:100C08000A128A1180300A168A112C250A128A11B2
:100C18001F3083120313CF009A30D0000A168A11AE
:100C2800D2240A128A11C0300A168A112C250A12F7
:100C38008A11FB3083120313CF009930D0000A16B3
:100C48008A11D2240A128A1194300A168A112C2584
:100C58000A128A11C53083120313CF009930D000CD
:100C68000A168A11D2240A128A1106308312031333
:100C7800DF000E30DE00B030DD00DD0B412EDE0B74
:100C8800412EDF0B412E8312031307127F30DF0042
:100C98005630DE008430DD00DD0B502EDE0B502E8A
:100CA800DF0B502E572E8312031307160030A600B1
:100CB8000030A700712E712E83122708003A0319FD
:100CC800662E712E2608013A0319F828033A0319EB
:100CD800C32A013A03198E2C712E0A168A1113277A
:100CE8000A128A110A128A1512260A128A11831206
:100CF8000313871C802E812E872E0A128A153B2209
:100D08000A128A11872E0D3083120313DF00A330D5
:100D1800DE00BD30DD00DD0B8F2EDE0B8F2EDF0BEE
:100D28008F2E6400A63083120313C8009A30C900BE
:100D3800AF30DD005D08CA000530CB000030CC00C4
:100D48000A128A1515210A128A11831203134908F7
:100D58004804031DB02EB12EBD2EFB18B42EB52E9F
:100D6800BD2E0A128A159B230A128A11FB14BD2E66
:100D7800BD2E83120313871DC22EC32EFE2E0A30EA
:100D8800DD005D08D80018300A168A118C250A1271
:100D98008A11031000300318013083120313D8009E
:100DA80019300A168A118C250A128A11FF3083120B
:100DB8000313DD005D08D8001A300A168A118C2545
:100DC8000A128A11C83083120313DD005D08D800A7
:100DD8001B300A168A118C250A128A110A168A11E2
:100DE80013270A128A110A128A153B220A128A113B
:100DF800FE2EFE2E831203138719032F042FFE2EB7
:100E08004C284C284C280A128A11122883120313E2
:100E1800DC005C080A168A112C250A128A11E830AF
:100E280083120313CF000330D0005908D201D20730
:100E38005808D101D1070A128A1520230A128A11EB
:100E4800831203134F081D3E840098300318013E97
:100E5800FF000A168A1500200A128A110A168A113A
:100E68005A250A128A11643083120313CF00003006
:100E7800D0005908CB01CB075808CA01CA07E83087
:100E8800C8000330C9000A128A15CF210A128A1134
:100E9800831203134908D201D2074808D101D107A8
:100EA8000A128A1520230A128A11831203134F0883
:100EB8001D3E840098300318013EFF000A168A156B
:100EC80000200A128A110A168A115A250A128A1152
:100ED8000A3083120313CF000030D0005908CB0129
:100EE800CB075808CA01CA07E830C8000330C90050
:100EF8000A128A15CF210A128A118312031349088C
:100F0800CB01CB074808CA01CA076430C8000030C3
:100F1800C9000A128A15CF210A128A1183120313F3
:100F28004908D201D2074808D101D1070A128A1507
:100F380020230A128A11831203134F081D3E8400CE
:100F480098300318013EFF000A168A1500200A127D
:100F58008A110A168A115A250A128A118312031352
:100F68005908CB01CB075808CA01CA07E830C8009E
:100F78000330C9000A128A15CF210A128A11831276
:100F880003134908CB01CB074808CA01CA076430D4
:100F9800C8000030C9000A128A15CF210A128A1126
:100FA800831203134908DB01DB074808DA01DA0773
:100FB8000A30C8000030C9005B08CB01CB075A08CB
:100FC800CA01CA070A128A15CF210A128A11831286
:100FD800031348081D3E840098300318013EFF00A3
:100FE8000A168A1500200A128A110A168A115A2529
:060FF8000A128A11080034
:10100000E7340334FF3083120313870080308316E4
:101010000313870024309800903083120313980044
:101020008130831603139900831203139A01080079
:1010300083120313DB005B080A168A112C250A129F
:101040008A150A3083120313CF000030D0005808ED
:10105000D900DA015908D1005A08D2000A128A15BB
:1010600020230A128A15831203134F081D3E8400A1
:1010700098300318013EFF000A168A1500200A1254
:101080008A150A168A115A250A128A150A308312FD
:101090000313C8000030C9005808D900DA01590804
:1010A000CA005A08CB000A128A15CF210A128A15E3
:1010B0008312031348081D3E840098300318013E34
:1010C000FF000A168A1500200A128A150A168A11CC
:1010D0005A250A128A15080083120313DB005B08E5
:1010E0000A168A112C250A128A150A308312031354
:1010F000CF000030D0005808D900DA015908D100DB
:101100005A08D2000A128A1520230A128A1583125D
:1011100003134F081D3E840098300318013EFF0062
:101120000A168A1500200A128A150A168A115A25EB
:101130000A128A150A3083120313C8000030C9004E
:101140005808D900DA015908CA005A08CB000A1217
:101150008A15CF210A128A158312031348081D3EEF
:10116000840098300318013EFF000A168A150020FB
:101170000A128A150A168A115A250A128A150800B7
:1011800001300A168A1152240A128A158312031397
:10119000D20000300A168A1152240A128A158312CC
:1011A0000313D300D4015308CC005408CD0064309D
:1011B000CE000030CF000A168A11FE240A128A15CA
:1011C0008312031352084C07AE000030031801309D
:1011D0004D07AF0003300A168A1152240A128A15ED
:1011E00083120313D20002300A168A1152240A1203
:1011F0008A1583120313D300D4015308CC0054087A
:10120000CD006430CE000030CF000A168A11FE24D3
:101210000A128A158312031352084C07B0000030DB
:10122000031801304D07B10008005229831203133F
:101230004A08840083130008CD004908FF004808CD
:1012400084000A168A1500200A128A154D06031911
:101250002A292B2947294A08840083130008CD0036
:10126000CE01CD09CE09CD0A0319CE0A4908FF00E7
:10127000480884000A168A1500200A128A154D07AC
:10128000C8004E0803184E0AC9006A296A290130AD
:10129000C8070318C90A0030C9070130CD004D083E
:1012A000CA075229013083120313CB020030031CFA
:1012B000CC03CC02FF304C06031D6029FF304B06E7
:1012C000031D63296429162965290030C8000030F0
:1012D000C9006A29080000300A168A1131240A124E
:1012E0008A15823083120313D000DD30CF00CF0B7C
:1012F0007729D00B77297C2903300A168A112C25EF
:101300000A128A15213083120313D0007630CF00E1
:10131000CF0B8829D00B8829640003300A168A1164
:101320002C250A128A15483083120313D0006C3022
:10133000CF00CF0B9929D00B9929640003300A16EE
:101340008A112C250A128A1502300A168A112C25B8
:101350000A128A1502300A168A112C250A128A15D9
:1013600028300A168A112C250A128A1500300A160E
:101370008A112C250A128A150C300A168A112C257E
:101380000A128A1500300A168A112C250A128A15AB
:1013900006300A168A112C250A128A150800031035
:1013A00000300318013083120313CE00CB1FD9295C
:1013B000DA29E329CA09CB09CA0A0319CB0ACE01E3
:1013C0000314CE0DE329C91FE629E729ED29C80931
:1013D000C909C80A0319C90AED29490848040319AB
:1013E000F229F329292ACD010314CD0D032A013056
:1013F0000310C80DC90DFF3E031DF8290130CC00B4
:101400004C08CD07032AC91F062A072AF729092AEB
:10141000092A49084B02031D0F2A48084A02031CE7
:10142000122A132A1A2A4808CA024908031CCB03A5
:10143000CB021A2A01300310C90CC80CFF3E031D51
:101440001B2A0130CD02031D262A272A092A292A10
:10145000292A4E08031D2D2A332ACA09CB09CA0A94
:101460000319CB0A332A4B08C901C9074A08C80126
:10147000C8073A2A080080300A168A112C250A1259
:101480008A154F3083120313CF009930D0000A160B
:101490008A11D2240A128A15C0300A168A112C2504
:1014A0000A128A15253083120313CF009930D00019
:1014B0000A168A11D2240A128A15831203132308EA
:1014C000D901D9072208D801D807C5300A128A11D4
:1014D0000A270A128A1594300A168A112C250A1234
:1014E0008A15903083120313CF009830D0000A166B
:1014F0008A11D2240A128A15831203132508D901EE
:10150000D9072408D801D8079A300A128A110A2765
:101510000A128A15D4300A168A112C250A128A1545
:10152000A63083120313CF009830D0000A168A1118
:10153000D2240A128A15831203132108D901D9076C
:101540002008D801D807DD300A128A110A270A12AA
:101550008A15080080300A168A112C250A128A156D
:101560000D3083120313CF009A30D0000A168A116F
:10157000D2240A128A15C0300A168A112C250A12A2
:101580008A15D73083120313CF009930D0000A1682
:101590008A11D2240A128A151A3083120313D30037
:1015A0004530D2007E30D100D10BD42AD20BD42AC0
:1015B000D30BD42A01300A168A112C250A128A1557
:1015C0000D3083120313D300A330D200BD30D100FD
:1015D000D10BE82AD20BE82AD30BE82A640080302A
:1015E0000A168A112C250A128A15E9308312031370
:1015F000CF009930D0000A168A11D2240A128A1517
:10160000C0300A168A112C250A128A15B3308312AB
:101610000313CF009930D0000A168A11D2240A127F
:101620008A151A3083120313D3004530D2007E305E
:10163000D100D10B192BD20B192BD30B192B08006E
:10164000031000300318013083120313D500D01F9C
:101650002A2B2B2B342BCF09D009CF0A0319D00A00
:10166000D5010314D50D342BD21F372B382B412B2A
:10167000D109D209D10A0319D20A0130D300530883
:10168000D5060030D6000030D70050084F040319AB
:101690004A2B4B2B892BD4010314D40D5B2B013027
:1016A0000310CF0DD00DFF3E031D502B0130D30092
:1016B0005308D4075B2BD01F5E2B5F2B4F2B612B66
:1016C000612B01300310D60DD70DFF3E031D622B99
:1016D00050085202031D6E2B4F085102031C712B40
:1016E000722B7A2B4F08D1025008031CD203D2026E
:1016F00056147A2B01300310D00CCF0CFF3E031D83
:101700007B2B0130D402031D862B872B612B892B69
:10171000892B5508031D8D2B932BD609D709D60A83
:101720000319D70A932B5708D001D0075608CF01C9
:10173000CF079A2B0800831603138C01783083128D
:101740000313C9009830CA000A168A11A6240A1287
:101750008A150D300A168A114D230A128A15B12BEB
:10176000B12B0A168A11AC230A128A1583120313AD
:10177000CB003E3A031DBD2BBE2BB12BBF2B7030CF
:10178000C9009A30CA000A168A11A6240A128A15BC
:101790003B3083120313C9000030CA000A168A11B5
:1017A000A6240A128A15AC3083120313C9009A309A
:1017B000CA000A168A11A6240A128A150D300A16C2
:1017C0008A114D230A128A15633083120313C9004C
:1017D0009A30CA000A168A11A6240A128A154430C1
:1017E00083120313C9000030CA000A168A11A62406
:1017F0000A128A15AC3083120313C9009A30CA004A
:101800000A168A11A6240A128A150D300A168A11A0
:101810004D230A128A15533083120313C9009A30DC
:10182000CA000A168A11A6240A128A1540308312A9
:101830000313C9000030CA000A168A11A6240A122E
:101840008A15B13083120313C9009A30CA000A16F0
:101850008A11A6240A128A151A300A168A114D23F3
:101860000A128A15342C342C0A168A11AC230A1257
:101870008A1583120313CB004B3A031D402C412CD5
:10188000342C422C2030831603138C0008000130C6
:101890000A168A1152240A128A1583120313D200DF
:1018A00000300A168A1152240A128A158312031371
:1018B000D300D4015308CC005408CD006430CE00CE
:1018C0000030CF000A168A11FE240A128A158312EC
:1018D000031352084C07A8000030031801304D07CD
:1018E000A90009300A168A1152240A128A15831295
:1018F0000313D20008300A168A1152240A128A15DC
:1019000083120313D300D4015308CC005408CD0034
:101910006430CE000030CF000A168A11FE240A126D
:101920008A158312031352084C07AA0000300318CB
:1019300001304D07AB0011300A168A1152240A12E9
:101940008A1583120313D20010300A168A1152240A
:101950000A128A1583120313D300D4015308CC0052
:101960005408CD006430CE000030CF000A168A1132
:10197000FE240A128A158312031352084C07AC0086
:101980000030031801304D07AD0002300A168A11ED
:1019900052240A128A1583120313D2005208B3008C
:1019A0000A300A168A1152240A128A158312031366
:1019B000D2005208B60012300A168A1152240A12B6
:1019C0008A1583120313D2005208B90004300A1694
:1019D0008A1152240A128A1583120313D200520864
:1019E000B2000C300A168A1152240A128A15831288
:1019F0000313D2005208B50014300A168A1152247B
:101A00000A128A1583120313D2005208B800033059
:101A10000A168A1152240A128A1583120313D2005D
:101A20005208B4000B300A168A1152240A128A1581
:101A300083120313D2005208B70013300A168A111A
:101A400052240A128A1583120313D2005208BA00D4
:101A5000080080300A168A112C250A128A15423095
:101A600083120313CF009A30D0000A168A11D224B1
:101A70000A128A15C0300A168A112C250A128A15F4
:101A8000313083120313CF009A30D0000A168A1126
:101A9000D2240A128A1505300A168A1111240A1254
:101AA0008A1501300A168A112C250A128A15B630B9
:101AB00083120313C9009A30CA000A168A11A62499
:101AC0000A128A150D300A168A114D230A128A1538
:101AD0006A2D6A2D0A168A11AC230A128A158312FE
:101AE0000313D1004B3A031D762D772D6A2D782DE7
:101AF0009230C9009A30CA000A168A11A6240A1226
:101B00008A150D300A168A114D230A128A15892D5D
:101B1000892D0A168A11AC230A128A15831203131F
:101B2000D1004B3A031D952D962D892D972D873089
:101B3000C9009A30CA000A168A11A6240A128A1508
:101B40000D300A168A114D230A128A15A82DA82DC8
:101B50000A168A11AC230A128A1583120313D100C4
:101B60004B3A031DB42DB52DA82DB62D7C30C900E0
:101B70009A30CA000A168A11A6240A128A150D3054
:101B80000A168A114D230A128A15C72DC72D0A1667
:101B90008A11AC230A128A1583120313D1004B3A1F
:101BA000031DD32DD42DC72DD52DA030C9009930BC
:101BB000CA000A168A11A6240A128A150D300A16BE
:101BC0008A114D230A128A15E62DE62D0A168A116E
:101BD000AC230A128A1583120313D1004B3A031D5A
:101BE000F22DF32DE62DF42D80300A168A112C25C6
:101BF0000A128A159C3083120313CF009A30D0004A
:101C00000A168A11D2240A128A150A300A168A1173
:101C100011240A128A1501300A168A112C250A127B
:101C20008A150800E83083120313CE000330CF007A
:101C30002308D101D1072208D001D0070A168A1142
:101C40005A270A128A15831203134E081D3E840078
:101C500098300318013EFF000A168A1500200A1268
:101C60008A15D6005608BB006430CE000030CF0085
:101C70002308CB01CB072208CA01CA07E830C800F5
:101C80000330C9000A168A11CD260A128A1583125A
:101C900003134908D101D1074808D001D0070A161B
:101CA0008A115A270A128A15831203134E081D3E01
:101CB000840098300318013EFF000A168A150020A0
:101CC0000A128A15D6005608BC000A30CE00003031
:101CD000CF002308CB01CB072208CA01CA07E8308E
:101CE000C8000330C9000A168A11CD260A128A15C7
:101CF000831203134908CB01CB074808CA01CA075E
:101D00006430C8000030C9000A168A11CD260A12B4
:101D10008A15831203134908D101D1074808D0015D
:101D2000D0070A168A115A270A128A15831203133A
:101D30004E081D3E840098300318013EFF000A162D
:101D40008A1500200A128A15D6005608BD002308FD
:101D5000CB01CB072208CA01CA07E830C80003300C
:101D6000C9000A168A11CD260A128A158312031396
:101D70004908CB01CB074808CA01CA076430C8002C
:101D80000030C9000A168A11CD260A128A1583125C
:101D900003134908D801D8074808D701D7070A30E4
:101DA000C8000030C9005808CB01CB075708CA014A
:101DB000CA070A168A11CD260A128A15831203133E
:101DC00048081D3E840098300318013EFF000A16A3
:101DD0008A1500200A128A15D6005608BE00643003
:101DE000CE000030CF002508D101D1072408D00152
:101DF000D0070A168A115A270A128A15831203136A
:101E00004E081D3E840098300318013EFF000A165C
:101E10008A1500200A128A15D6005608C4000A3016
:101E2000CE000030CF002508CB01CB072408CA0123
:101E3000CA076430C8000030C9000A168A11CD26CE
:101E40000A128A15831203134908D101D1074808E1
:101E5000D001D0070A168A115A270A128A1583124E
:101E600003134E081D3E840098300318013EFF0006
:101E70000A168A1500200A128A15D6005608C500CF
:101E80002508CB01CB072408CA01CA076430C80063
:101E90000030C9000A168A11CD260A128A1583124B
:101EA00003134908D801D8074808D701D7070A30D3
:101EB000C8000030C9005808CB01CB075708CA0139
:101EC000CA070A168A11CD260A128A15831203132D
:101ED00048081D3E840098300318013EFF000A1692
:101EE0008A1500200A128A15D6005608C6006430EA
:101EF000CE000030CF002108D101D1072008D00149
:101F0000D0070A168A115A270A128A158312031358
:101F10004E081D3E840098300318013EFF000A164B
:101F20008A1500200A128A15D6005608C0000A3009
:101F3000CE000030CF002108CB01CB072008CA011A
:101F4000CA076430C8000030C9000A168A11CD26BD
:101F50000A128A15831203134908D101D1074808D0
:101F6000D001D0070A168A115A270A128A1583123D
:101F700003134E081D3E840098300318013EFF00F5
:101F80000A168A1500200A128A15D6005608C100C2
:101F90002108CB01CB072008CA01CA076430C8005A
:101FA0000030C9000A168A11CD260A128A1583123A
:101FB00003134908D801D8074808D701D7070A30C2
:101FC000C8000030C9005808CB01CB075708CA0128
:101FD000CA070A168A11CD260A128A15831203131C
:101FE00048081D3E840098300318013EFF000A1681
:101FF0008A1500200A128A15D6005608C200080069
:10268A0064008001840A0406031900340406462BF8
:10269A0083120313C800512B0C1E542B552B512B9C
:1026AA00562B480899000800E73403343134433480
:1026BA0030343034383432344334453436343934AF
:1026CA003334393400348312031388151A30C9009D
:1026DA00F830C800C80B6F2BC90B6F2B640083122C
:1026EA00031388110800831203138814081483162D
:1026FA00031388100814831203138814A930C8001E
:10270A00C80B852B882B08007E088A007F08820068
:10271A0089230A168A118000840A04087D0603198F
:10272A000034FF0A0319FE0A8D2B83120313981C27
:10273A009F2BA02BA42B18121816A42BA42B8C1E8B
:10274A00A72BA82BA42BA92B1A08AB2B08008312A2
:10275A000313981CB12BB22BB62B18121816B62BD2
:10276A00B62B8C1EB92BBA2BB62BBB2B1A08BD2B3A
:10277A0008008C1EC12BC22BCA2BFB10AF300A16C5
:10278A008A1187260A168A11CA2B7708831203131D
:10279A00FF0076088A007508840074088300FE0E1C
:1027AA007E0E090031344234303430343334433409
:1027BA0035344234463443343834303400343134D6
:1027CA00423430343034333443343534423446348A
:1027DA00433438343134003483120313C9000430CB
:1027EA00C8004808CA003E30C8004808F80000007F
:1027FA00F80BFC2B6400013083120313CA02031D79
:10280A00072C082CF82B092C0130C902031D0E2CA9
:10281A000F2CF42B102C080083120313CC00043065
:10282A00CB004B08CD00192CFA300A168A11F12375
:10283A000A168A116400013083120313CD02031DA4
:10284A00272C282C192C292C0130CC02031D2E2CC4
:10285A002F2C142C302C080083120313C800481C98
:10286A00372C382C3A2C08163B2C0812C81C3E2C44
:10287A003F2C412C8816422C8812481D452C462C88
:10288A00482C0817492C0813C81D4C2C4D2C4F2CCA
:10289A008817512C8813512C080083120313CB007C
:1028AA006400831603178C185B2C5C2C552C5D2C4A
:1028BA00831203134B08831203178D003F308312D0
:1028CA000313C8004808831603178C050C14031059
:1028DA000C18031400300318013083120313C900C3
:1028EA00CA01831203170C087A2C080083120313F7
:1028FA00CD00802C802C4D08840083130008CA0068
:10290A00480884000130C8070003FF3A4A07CB0091
:10291A004B08CC00CC08031D932C942C9F2C4D08FB
:10292A0084000130CD078008031D9C2C9D2C802C2F
:10293A009F2C9F2C4C08C800C901C81BC903A52C91
:10294A000800C02C831203134A08FF0049088400B8
:10295A000A168A1500200A168A110A168A114D23A8
:10296A000A168A11013083120313C9070318CA0A07
:10297A000030CA07C02C831203134A08FF00490813
:10298A0084000A168A1500200A168A110038031DC7
:10299A00CF2CD02CA72CD12C0800EC2C831203139B
:1029AA005008FF004F0884000A168A1500200A16EC
:1029BA008A110A168A115A250A168A1101308312B7
:1029CA000313CF070318D00A0030D007EC2C831268
:1029DA0003135008FF004F0884000A168A150020C6
:1029EA000A168A110038031DFB2CFC2CD32CFD2C53
:1029FA000800003083120313D0000030D100052DE7
:102A0A004C1C082D092D0F2D4E08D0070318D10A8A
:102A1A004F08D10701300310CE0DCF0DFF3E031D25
:102A2A00102D01300310CD0CCC0CFF3E031D172DC9
:102A3A004D084C04031D222D232D052D242D51084C
:102A4A00CD01CD075008CC01CC072B2D08008312ED
:102A5A000313CE004E08CA0004300310CA0CFF3E0E
:102A6A00031D322D4A080F39CB004B08CD004E0802
:102A7A000F39CA004A08CC004D080A168A113124B7
:102A8A000A168A110A168A1168230A168A118312EB
:102A9A0003134C080A168A1131240A168A110A16D7
:102AAA008A1168230A168A11080083120313CE00BA
:102ABA004E08CA0004300310CA0CFF3E031D602DE5
:102ACA004A080F39CB004B08CD004E080F39CA000F
:102ADA004A08CC0008154D080A168A1131240A162C
:102AEA008A110A168A1168230A168A118312031395
:102AFA004C080A168A1131240A168A110A168A11F2
:102B0A0068230A168A118312031308110800831214
:102B1A000313DA00902D831603178C18952D962D22
:102B2A00902D972D831203135A08831203178D00D1
:102B3A00831203135808831203178C003F30831241
:102B4A000313D9005908831603178C05831203133C
:102B5A0003108B1FB12DB22DB32D03148B138316C3
:102B6A0003170C1555308D00AA308D008C140C11EA
:102B7A0083120313031CC22DC32DC62D8B17C62D1A
:102B8A00C62D08007B18CA2DCB2D032E00308312C8
:102B9A000313CD000030CE004E08803AFF0080308B
:102BAA007F02031DDA2D0C304D02031CDD2DDE2DB4
:102BBA00E02D012E012E0A168A1143260A168A11C1
:102BCA0083120313CC004D08C33E84004C088313C0
:102BDA0080000130CD070318CE0A0030CE074E0818
:102BEA00803AFF0080307F02031DFD2D0C304D021C
:102BFA00031C002E012EE02D7B14032E0800FB017E
:102C0A00F801F901FA0183132030840048300A16CA
:102C1A008A1145230A168A11A0308400D2300A1676
:102C2A008A1145230A168A11EC30FD001330FE0082
:102C3A00D730FF00D23084000A168A118D230A1673
:102C4A008A116F30FD001330FE005930FF006030EA
:102C5A0084000A168A118D230A168A110A128A1505
:102C6A0000200A168A11FC000A128A1501200A1687
:102C7A008A11FD0083010A128A11152803100030F7
:102C8A000318013083120313CA004B2E08184E2E64
:102C9A004F2E4B2E502E5430C800C80B522E552E94
:102CAA0083120313CB010314CB0DCB08031D5E2E35
:102CBA005F2E612E7D2E7D2EA930C800C80B632E93
:102CCA00662E83120313081C6B2E6C2E712E4A0873
:102CDA004B04C8004808CA004B08C8004807C90086
:102CEA004908CB00CB08031D7B2E7C2E612E7D2E3E
:102CFA00A930C800C80B7F2E822E831203134A08FC
:102D0A00862E0800F2000310003003180130F30089
:102D1A000310003003180130F100932E0A168A11AD
:102D2A009A230A168A11F0007008F3007308233AEE
:102D3A00031DA02EA12EAD2EF1010314F10D0A16CA
:102D4A008A119A230A168A11F0007008F300AD2E30
:102D5A007108031DB12EBD2E7308F000720884009D
:102D6A007008831380000130F0007008F207BD2E4E
:102D7A0073080A3A031DC22EC32E932EC42E0310C3
:102D8A0072088400003003180130831380000800A1
:102D9A0083120313490848040319D42ED52E0B2F86
:102DAA00CD010314CD0DE52E01300310C80DC90D58
:102DBA00FF3E031DDA2E0130CC004C08CD07E52E6C
:102DCA00C91FE82EE92ED92EEB2EEB2E49084B020D
:102DDA00031DF12E48084A02031CF42EF52EFC2E80
:102DEA004808CA024908031CCB03CB02FC2E013057
:102DFA000310C90CC80CFF3E031DFD2E0130CD0285
:102E0A00031D082F092FEB2E0B2F0B2F4B08C9017F
:102E1A00C9074A08C801C807122F080019300A163C
:102E2A008A1152240A168A1183120313D200183007
:102E3A000A168A1152240A168A1183120313D3001E
:102E4A00D4015308CC005408CD006430CE000030C1
:102E5A00CF000A168A11FE240A168A118312031356
:102E6A0052084C07A2000030031801304D07A30096
:102E7A001A300A168A1152240A168A118312031367
:102E8A00D200D3015208A4005308A5001B300A1629
:102E9A008A1152240A168A1183120313D200D3010B
:102EAA005208A0005308A10008000030831203133F
:102EBA00D3000030D4004F084E040319652F662F43
:102ECA00A42FD5010314D50D762F01300310CE0D92
:102EDA00CF0DFF3E031D6B2F0130D2005208D507DC
:102EEA00762FCF1F792F7A2F6A2F7C2F7C2F0130D4
:102EFA000310D30DD40DFF3E031D7D2F4F08510241
:102F0A00031D892F4E085002031C8C2F8D2F952FDD
:102F1A004E08D0024F08031CD103D1025314952F37
:102F2A0001300310CF0CCE0CFF3E031D962F01304B
:102F3A00D502031DA12FA22F7C2FA42FA42F540842
:102F4A00CF01CF075308CE01CE07AB2F080083125B
:102F5A000313DB005B080A168A112C250A168A114C
:102F6A000A3083120313CF000030D0005808D9006A
:102F7A00DA015908D1005A08D2000A128A15202308
:102F8A000A168A11831203134F081D3E84009830D3
:102F9A000318013EFF000A168A1500200A168A1134
:102FAA000A168A115A250A168A110A30831203133D
:102FBA00C8000030C9005808D900DA015908CA0007
:102FCA005A08CB000A128A15CF210A168A118312CF
:102FDA00031348081D3E840098300318013EFF0081
:102FEA000A168A1500200A168A110A168A115A2503
:102FFA000A168A110800FF1B0A2883137F188317F1
:10300A000008840A0319FF0A08007F087F398A002A
:10301A000408840A0319FF0A820030343134323436
:10302A00333434343534363437343834393400347C
:10303A00303431343234333434343534363437344A
:10304A003834393400346D346F3469347334743439
:10305A006534723420346C346534763465346C34B7
:10306A002034683469346734683420346D346F34FA
:10307A0074346534723420344F3446344634003460
:10308A006D346F3469347334743465347234203473
:10309A006C346534763465346C3420346C346F3473
:1030AA00773420346D346F34743465347234203498
:1030BA004F344E340034413454342B3443344D3479
:1030CA00473453343D3422342B343934313439348F
:1030DA0037343934303430343834303435343134A8
:1030EA00303422340034413454342B3443344D3494
:1030FA00473453343D3422342B343934313439345F
:10310A003034303433343834333431343334303483
:10311A00343422340034533455344734413452342D
:10312A003A3420342034203420344B346734203469
:10313A0020342034203420342034203420342034E5
:10314A0000344B34453452344F34533445344E34BE
:10315A0045343A34203420342034203420344C345A
:10316A0074347334203420342034203400345234FC
:10317A004934533445343A342034203420344B34DF
:10318A00673420342034203420342034203420344E
:10319A0020342034203400345334553447344134F5
:1031AA0052343A342034203420344B3467342034B7
:1031BA002034203420342034203420342034203465
:1031CA000034553453344534523431342034413484
:1031DA004D344F3455344E3454343A342034203438
:1031EA0020342034203420342034003455345334ED
:1031FA00453452343234203441344D344F3455340A
:10320A004E3454343A342034203420342034203498
:10321A002034203400345534533445345234333452
:10322A00203441344D344F3455344E3454343A34C6
:10323A002034203420342034203420342034003404
:10324A0052344934533445343A3420342034203407
:10325A002034203420344B34673420342034203452
:10326A00203420342034203400344B344534523452
:10327A004F34533445344E3445343A3420342034B0
:10328A0020344C34743473342034203420342034C1
:10329A00203400342034203420342034533454343D
:1032AA004F3443344B342034443445345434413459
:1032BA0049344C34533420342034203400344334D9
:1032CA0072346F3470342034633472346F3473342C
:1032DA007334653464342034733474346134673439
:1032EA00653431340034433472346F3470342034EA
:1032FA00633472346F347334733465346434203411
:10330A00733474346134673465343234003443348A
:10331A0072346F3470342034633472346F347334DB
:10332A0073346534643420347334743461346734E8
:10333A00653433340034413454342B3443344E34FA
:10334A004D3449343D3432342C3432342C34303414
:10335A002C3430342C3430340D34003453344D345E
:10336A004134523454342034433441345234443492
:10337A0020342034203420342034203420340034C3
:10338A0020342034203420342034203456344F342E
:10339A004C345534453420342034203420342034FD
:1033AA00203400342034203420344334413452341D
:1033BA0044342034533459345334543445344D341A
:1033CA00203420342034003450344C3445344134D1
:1033DA00533445342034543441345034203459342D
:1033EA004F3455345234203420340034203443349A
:1033FA0041344E3420344F344E3420344B34453427
:10340A0052344F34533445344E3445342034003426
:10341A004134553454344F344D344134543449349E
:10342A004334203452344134543449344F344E34C2
:10343A0020340034203450344C344534413453342D
:10344A00453420344B3445344534503420345934CF
:10345A004F3455345234003450344C3453342034BD
:10346A0057344134493454342E342E342E342E34C5
:10347A002E342E342E342E340034473453344D3403
:10348A00203449344E3449345434493441344C3468
:10349A0049345A3449344E34473400344B34653451
:1034AA0072346F34733465346E3465342034533473
:1034BA0074346F3463346B343A34003453347534AF
:1034CA006734613472342034533474346F3463345F
:1034DA006B343A34003452346934733465342034EA
:1034EA00533474346F3463346B343A3400344134B3
:1034FA0054342B3443344D34473446343D34313418
:10350A000D340034413454342B344334533444346A
:10351A0048343D3431340D340034413454342B347E
:10352A004334503449344E343F340D340034473434
:10353A0053344D34203452344534413444345934AC
:10354A000034533454344F3443344B34003420342D
:10355A004B3467347334003420344C347434733449
:0A356A000034413454340D340034B1
:02400E00E22CA2
:104200000A00000032000A00080000000000000060
:104210000A0000001E000800060000000000000068
:104220000A00000014000400050000000000000067
:104230000A000000FF00C800C800000000000000E5
:00000001FF
