:060000000A128A110C280F
:10000800FE000308F0000A08F1000A128A114C2DBC
:100018000A128A11372D00303A220A128A11013049
:100028003A2AF8003A220A128A110A30F2007708AE
:100038006C220A128A11A3220A128A1100260A12B5
:100048008A1127210A128A110A30F20077088722BA
:100058000A128A11A3220A128A1100260A128A1188
:100068002729F8003A220A128A110A30F200770882
:100078006C220A128A11A3220A128A1100260A1275
:100088008A1127210A128A110A30F200770887227A
:100098000A128A11A3220A128A1100260A128A1148
:1000A8002729F8003A220A128A110A30F200770842
:1000B8006C220A128A11A3220A128A1100260A1235
:1000C8008A1127210A128A110A30F200770887223A
:1000D8000A128A11A3220A128A1100260A128A1108
:1000E8002729BA003A220A128A11E830B0000330F0
:1000F800B1003908B3003808B20040210A128A1149
:100108003008A3220A128A1100260A128A1127210E
:100118000A128A116430B000B101AA220A128A11A7
:10012800EA200A128A117308B3007208B20040214B
:100138000A128A113008A3220A128A1100260A120A
:100148008A1127210A128A110A30B000B101AA22A5
:100158000A128A11EA200A128A11B3220A128A1193
:10016800EA200A128A117308B3007208B20040210B
:100178000A128A113008A3220A128A1100260A12CA
:100188008A1127210A128A11AA220A128A11EA2040
:100198000A128A11B3220A128A11EA200A128A1153
:1001A8007308BC007208BB000A30F200F3013C0877
:1001B800F5003B08F400EA200A128A117208A3220B
:1001C8000A128A1100260A128A112729F701F51F37
:1001D800F428F409F509F40A0319F50AF701F70AEE
:1001E800F31FFB28F209F309F20A0319F30A73084B
:1001F800720403191A29F601F60AF31B07290310DA
:10020800F20DF30D002973087502031D0D297208FC
:100218007402031C16297208F4027308031CF50300
:10022800F5020310F30CF20CF60B072977080319F3
:100238002229F409F509F40A0319F50A7508F300E7
:100248007408F2000800F600760E0F39F5000F303A
:10025800F5057608F4000F30F405081575088521B2
:100268000A128A119F210A128A11740885210A121A
:100278008A119F2108110800B501B11F4A29B00948
:10028800B109B00A0319B10AB501B50AB31F532958
:10029800B209B309B20A0319B30A0130B506B601A7
:1002A800B7013108300403197829B401B40AB11B25
:1002B80061290310B00DB10D5A290310B60DB70D01
:1002C80031083302031D6A2930083202031C7429DD
:1002D8003008B2023108031CB303B302361403100A
:1002E800B10CB00CB40B6129350803198029B60983
:1002F800B709B60A0319B70A3708B1003608B000BB
:100308000800F200721C8C298312031308168F2927
:10031800831203130812F21C932988169429881251
:10032800721D9829081799290813F21D9D29881705
:1003380008008813080088151A30F300F830F20016
:10034800F20BA429F30BA429640083120313881168
:10035800080080303A220A128A112530F7008730C7
:10036800F80050220A128A11C0303A220A128A1161
:100378000130F7008730F80050220A128A117F30C6
:10038800B2005630B1008430B000B00BC929B10BAF
:10039800C929B20BC929D02901303A220A128A1177
:1003A8000D30B200A330B100BD30B000B00BDA2977
:1003B800B10BDA29B20BDA29640080303A220A122A
:1003C8008A111330F7008730F80050220A128A1178
:1003D800C0303A220A128A11EF30F7008630F8004E
:1003E800502A003085210A128A118230F800DD3047
:1003F800F700F70BFD29F80BFD29022A03303A22F2
:100408000A128A112130F8007630F700F70B0A2A11
:10041800F80B0A2A640003303A220A128A1148307B
:10042800F8006C30F700F70B172AF80B172A64004E
:1004380003303A220A128A1102303A220A128A1129
:1004480002303A220A128A1128303A220A128A11F4
:1004580000303A220A128A110C303A220A128A1102
:1004680000303A220A128A1106303A2AF600760E2D
:100478000F39F5000F30F5057608F4000F30F40554
:10048800750885210A128A119F210A128A11740897
:1004980085210A128A119F297808FF0077088400AD
:1004A8000A128A1100260A128A1100380319080054
:1004B8007808FF00770884000A128A1100260A12B9
:1004C8008A1127210A128A11F70A0319F80A502AF1
:1004D800F300F50172080319852AF401F40AF21BE6
:1004E800782A0310F20D722A0310F50D72087302B0
:1004F800031C822A7208F30275140310F20CF40B21
:10050800782A75080800F4000830F500F601740828
:10051800F30007300310F30CFF3E0310031D8F2A6E
:10052800760D7304F6000310F40D72087602031CAE
:100538009F2A7208F602F50B8B2A76080800123EED
:10054800840086300318013EFF0008003908F500D2
:100558003808F400E830F2000330F30008007308AC
:10056800F5007208F4006430F200F3010800831605
:1005780003178801890103138801831288010F304A
:1005880083168700831287010A128A1127250A1207
:100598008A110A128A11F5210A128A110A128A117D
:1005A8005E240A128A110A128A11AD210A128A11CE
:1005B8000A128A110F200A128A11FF2B0A128A11B5
:1005C80078240A128A1180300A128A113A220A12F1
:1005D8008A117130F7008630F8000A128A11502209
:1005E8000A128A112308B9002208B8008D300A12AD
:1005F8008A1175200A128A11C0300A128A113A2209
:100608000A128A113230F7008630F8000A128A116D
:1006180050220A128A117908F700C5300A128A1185
:1006280035200A128A1194300A128A113A220A12C3
:100638008A115C30F7008630F8000A128A115022BD
:100648000A128A112908F7009A300A128A115520CD
:100658000A128A11D4300A128A113A220A128A110D
:10066800B030F7008630F8000A128A1150220A12B8
:100678008A112808F82B0A128A1178240A128A117A
:1006880080300A128A113A220A128A118630F7003B
:100698008630F8000A128A1150220A128A11250897
:1006A800B9002408B8008D300A128A1175200A1280
:1006B8008A11C0300A128A113A220A128A1132307B
:1006C800F7008630F8000A128A1150220A128A119D
:1006D8007A08F700C5300A128A1135200A128A11E1
:1006E80094300A128A113A220A128A115C30F700F1
:1006F8008630F8000A128A1150220A128A112B0831
:10070800F7009A300A128A1155200A128A11D43039
:100718000A128A113A220A128A11B030F70086307A
:10072800F8000A128A1150220A128A112A08F82B94
:100738000A128A1178240A128A1180300A128A1140
:100748003A220A128A119B30F7008630F8000A1202
:100758008A1150220A128A112708B9002608B800FF
:100768008D300A128A1175200A128A11C0300A12B5
:100778008A113A220A128A113230F7008630F800BC
:100788000A128A1150220A128A112D08F700C53060
:100798000A128A1135200A128A1194300A128A1113
:1007A8003A220A128A115C30F7008630F8000A12E1
:1007B8008A1150220A128A112E08F7009A300A125A
:1007C8008A1155200A128A11D4300A128A113A2243
:1007D8000A128A11B030F7008630F8000A128A111E
:1007E80050220A128A112C08F700DD300A128A11E9
:1007F80015200A128A11071C042CA001A00AA101C5
:10080800871C092C0230A000A101071D0E2C033003
:10081800A000A101871D132C0430A000A10121080C
:10082800003A031D212C2008013A0319E22A033A51
:1008380003193F2B013A03199C2B80300A128A11A5
:100848003A220A128A11DA30F7008630F8000A12C2
:100858008A1150220A128A11C0300A128A113A22C9
:100868000A128A11C530F7008630F8000A128A1178
:1008780050220A128A1194300A128A113A220A1254
:100888008A114730F7008630F8000A128A11502280
:100898000A128A11D4300A128A113A220A128A11CB
:1008A8001D30F7008630F8000A128A1150220A1209
:1008B8008A11FF2B0030ED240A128A1121250A1211
:1008C8008A1105250A128A110130ED240A128A11AB
:1008D8000230ED240A128A1121250A128A110525EF
:1008E8000A128A110330ED2C0030ED240A128A1105
:1008F80021250A128A1105250A128A117608A300F1
:100908007508A2000130ED240A128A110313A20708
:100918000318A30A0830ED240A128A1121250A12A5
:100928008A1105250A128A117608A5007508A400FF
:100938000F30ED240A128A110313A4070318A50A1D
:100948001030ED240A128A1121250A128A11052570
:100958000A128A117608A7007508A6001730ED2438
:100968000A128A110313A6070318A70A0230ED24F6
:100978000A128A11F9000A30ED240A128A11FA00C3
:100988001230ED240A128A110313AD000430ED244D
:100998000A128A110313A8000C30ED240A128A11D6
:1009A8000313AA001430ED240A128A110313AC00B1
:1009B8000330ED240A128A110313A9000B30ED2429
:1009C8000A128A110313AB001330ED240313AE008F
:1009D8000800F4006400831603178C18EE2C7408C2
:1009E80083128D003F3083168C050C1403100C18ED
:1009F8000314003003180130F200F30183120C08CD
:100A080008000313B001B101751C112D77080313F9
:100A1800B0070318B10A7808B1070310F70DF80DED
:100A28000310F60CF50C76087504031D082D031346
:100A38003108F6003008F5000800F500F6016430CA
:100A4800F700F8010800FF30870080308316870020
:100A580024309800903083129800813083169900D2
:100A680083129A010800F901FA01831320308400E7
:100A780030300A128A11442583010A128A11BB2ACE
:100A880064008001840A0406031900340406452D15
:0E0A980071088A0070088300FE0E7E0E0900B1
:100C0000FF1B0A2E83137F1883170008840A031919
:100C1000FF0A08007F087F398A000408840A031944
:100C2000FF0A8200303431343234333434343534D2
:100C300036343734383439340034203420342034D6
:100C40002034203420342034203420342034203404
:100C500020342034203420342034203420342034F4
:100C60002034003452344934533445343A34203437
:100C7000203420344B346734203420342034203462
:100C800020342034203420342034203400342034E4
:100C90002034203420342034203420344334413470
:100CA000523444342034203420342034203420344E
:100CB0002034203420340034533455344734413404
:100CC00052343A342034203420344B3467342034C6
:100CD0002034203420342034203420342034203474
:100CE0000034553453344534523431342034413493
:100CF0004D344F3455344E3454343A342034203447
:100D000020342034203420342034003455345334FB
:100D1000453452343234203441344D344F34553418
:100D20004E3454343A3420342034203420342034A7
:100D30002034203400345534533445345234333461
:100D4000203441344D344F3455344E3454343A34D5
:100D50002034203420342034203420342034003413
:100D60004B34453452344F34533445344E34453487
:100D70003A342034203420344C34743473342034E6
:100D800020342034203420340034203450344C3487
:100D900045344134533445342034433448344534A5
:100DA00043344B34203459344F3455345234203486
:100DB00020340034553453344534523420344E34C6
:100DC0004F34543420344134553454344834453449
:100DD0004E3454344934433441345434003453345D
:100DE0004D34413452345434203443344134523439
:100DF000443420342034203420342034203420342F
:100E000000342034203420344334413452344434C8
:100E10002034533459345334543445344D3420340D
:100E200020342034003450344C344534413453346D
:100E300045342034543441345034203459344F3400
:100E40005534523420342034003441345534543431
:100E50004F344D34413454344934433420345234C3
:0E0E60004134543449344F344E34203400347D
:02400E00E22CA2
:104200000A00000032000A00080000000000000060
:104210000A0000001E000800060000000000000068
:104220000A00000014000400050000000000000067
:00000001FF
