:060000000A128A110C280F
:10000800FE000308F0000A08F1000A128A119D2E6A
:100018000A128A11C32DF8004C210A128A110A30DB
:10002800F2007708B6220A128A11ED220A128A1102
:1000380000270A128A1130220A128A110A30F200A5
:100048007708D1220A128A11ED220A128A11002792
:100058000A128A11302AF8004C210A128A110A3031
:10006800F2007708B6220A128A11ED220A128A11C2
:1000780000270A128A1130220A128A110A30F20065
:100088007708D1220A128A11ED220A128A11002752
:100098000A128A11302AF8004C210A128A110A30F1
:1000A800F2007708B6220A128A11ED220A128A1182
:1000B80000270A128A1130220A128A110A30F20025
:1000C8007708D1220A128A11ED220A128A11002712
:1000D8000A128A11302A80304C210A128A112C30D7
:1000E800F7008830F80062210A128A11C0304C21CA
:1000F8000A128A110230F7008830F80062210A12C9
:100108008A112308E9002208E800C5307E210A1276
:100118008A1194304C210A128A116D30F700873009
:10012800F80062210A128A112508E9002408E8006B
:100138009A307E210A128A11D4304C210A128A116F
:100148008330F7008730F80062210A128A112108EB
:10015800E9002008E800DD307E2980304C210A12B1
:100168008A11C630F7008830F80062210A128A1115
:10017800C0304C210A128A11A230F7008830F800EA
:1001880062210A128A111A30E2004530E1007E30FD
:10019800E000E00BCD28E10BCD28E20BCD280130A3
:1001A8004C210A128A110D30E200A330E100BD3063
:1001B800E000E00BDD28E10BDD28E20BDD28640020
:1001C80080304C210A128A11B430F7008830F800C8
:1001D80062210A128A11C0304C210A128A11903009
:1001E800F7008830F80062210A128A111A30E200FA
:1001F8004530E1007E30E000E00B0029E10B0029EA
:10020800E20B0029080000308E220A128A1182307F
:10021800F800DD30F700F70B0F29F80B0F29142928
:1002280003304C210A128A112130F8007630F70089
:10023800F70B1C29F80B1C29640003304C210A1207
:100248008A114830F8006C30F700F70B2929F80BB1
:100258002929640003304C210A128A1102304C21EA
:100268000A128A1102304C210A128A1128304C21B4
:100278000A128A1100304C210A128A110C304C21C2
:100288000A128A1100304C210A128A1106304C29B0
:10029800F600760E0F39F5000F30F5057608F400F4
:1002A8000F30F40575088E220A128A11A8220A1244
:1002B8008A1174088E220A128A11A82A7808FF0067
:1002C800770884000A128A1100270A128A11003856
:1002D800031908007808FF00770884000A128A11B9
:1002E80000270A128A1130220A128A11F70A031902
:1002F800F80A6229EA004C210A128A11E830E00063
:100308000330E1006908E3006808E20049220A12A4
:100318008A116008ED220A128A1100270A128A112E
:1003280030220A128A116430E000E101F4220A1234
:100338008A11F3210A128A117308E3007208E20095
:1003480049220A128A116008ED220A128A1100272E
:100358000A128A1130220A128A110A30E000E101D9
:10036800F4220A128A11F3210A128A11FD220A12B2
:100378008A11F3210A128A117308E3007208E20055
:1003880049220A128A116008ED220A128A110027EE
:100398000A128A1130220A128A11F4220A128A11C8
:1003A800F3210A128A11FD220A128A11F3210A1274
:1003B8008A117308EC007208EB000A30F200F301AE
:1003C8006C08F5006B08F400F3210A128A11720810
:1003D800ED220A128A1100270A128A11302AF7011F
:1003E800F51FFD29F409F509F40A0319F50AF701BF
:1003F800F70AF31F042AF209F309F20A0319F30AA8
:10040800730872040319232AF601F60AF31B102A4B
:100418000310F20DF30D092A73087502031D162A3D
:1004280072087402031C1F2A7208F4027308031C62
:10043800F503F5020310F30CF20CF60B102A7708FB
:1004480003192B2AF409F509F40A0319F50A7508A2
:10045800F3007408F2000800F600760E0F39F50074
:100468000F30F5057608F4000F30F4050815750807
:100478008E220A128A11A8220A128A1174088E2260
:100488000A128A11A82208110800E501E11F532A5F
:10049800E009E109E00A0319E10AE501E50AE31FB9
:1004A8005C2AE209E309E20A0319E30A0130E506D6
:1004B800E601E701610860040319812AE401E40AFE
:1004C800E11B6A2A0310E00DE10D632A0310E60D13
:1004D800E70D61086302031D732A60086202031CAA
:1004E8007D2A6008E2026108031CE303E302661444
:1004F8000310E10CE00CE40B6A2A65080319892A49
:10050800E609E709E60A0319E70A6708E100660849
:10051800E0000800F200721C952A831203130816E3
:10052800982A831203130812F21C9C2A88169D2A03
:100538008812721DA12A0817A22A0813F21DA62ADA
:10054800881708008813080088151A30F300F83057
:10055800F200F20BAD2AF30BAD2A640083120313E9
:1005680088110800F300F50172080319CF2AF40175
:10057800F40AF21BC22A0310F20DBC2A0310F50D6F
:1005880072087302031CCC2A7208F3027514031054
:10059800F20CF40BC22A75080800F4000830F500C4
:1005A800F6017408F30007300310F30CFF3E031044
:1005B800031DD92A760D7304F6000310F40D720892
:1005C8007602031CE92A7208F602F50BD52A76088A
:1005D8000800123E840087300318013EFF0008001F
:1005E8006908F5006808F400E830F2000330F30009
:1005F80008007308F5007208F4006430F200F30193
:100608000800831603178801890101300313880045
:10061800831288010F3083168700831287010A121C
:100628008A1177260A128A110A128A1107210A12D8
:100638008A110A128A11D6240A128A110A128A11F8
:1006480087260A128A110A128A11B1200A128A11FF
:10065800831203130718552BB430F7008830F800BD
:100668000A128A1162210A128A11C0300A128A11EA
:100678004C210A128A119030F7008830F8000A12CB
:100688008A1162210A128A110630EF000E30EE003C
:10069800B030ED00ED0B4E2BEE0B4E2BEF0B4E2B2F
:1006A80079100A128A111B260A128A114630F200A2
:1006B80037300A128A1159260A128A1173087204ED
:1006C800031D6D2B83120313A601A60AA701B70108
:1006D800AC2C5330F20037300A128A1159260A120C
:1006E8008A1173087204031D7B2B0230882BA030FB
:1006F800F20037300A128A1159260A128A11730831
:100708007204031DAC2C033083120313A6006A2B5A
:100718000A128A1113250A128A1180300A128A11C4
:100728004C210A128A11C330F7008730F8000A12E8
:100738008A1162210A128A112908E9002808E800AA
:100748008D300A128A117E210A128A11C0300A12CB
:100758008A114C210A128A119930F7008730F80063
:100768000A128A1162210A128A117A08F700C53022
:100778000A128A112F200A128A1194300A128A1139
:100788004C210A128A11AE30F7008730F8000A129D
:100798008A1162210A128A112F08F7009A300A1268
:1007A8008A114F200A128A11D4300A128A114C2158
:1007B8000A128A111730F7008830F8000A128A11D5
:1007C80062210A128A112E08F700DD300A128A11F6
:1007D8000F200A128A11A601A701BC2C0A128A113D
:1007E80013250A128A1180300A128A114C210A1222
:1007F8008A11D830F7008730F8000A128A1162216E
:100808000A128A112B08E9002A08E8008D300A121A
:100818008A117E210A128A11C0300A128A114C21CB
:100828000A128A119930F7008730F8000A128A11E3
:1008380062210A128A113108F700C5300A128A119A
:100848002F200A128A1194300A128A114C210A1296
:100858008A11AE30F7008730F8000A128A11622137
:100868000A128A113208F7009A300A128A114F20A8
:100878000A128A11D4300A128A114C210A128A11DA
:100888001730F7008830F8000A128A1162210A121C
:100898008A113008E82B0A128A1113250A128A11C4
:1008A80080300A128A114C210A128A11ED30F700A1
:1008B8008730F8000A128A1162210A128A112D085B
:1008C800E9002C08E8008D300A128A117E210A12EC
:1008D8008A11C0300A128A114C210A128A119930E1
:1008E800F7008730F8000A128A1162210A128A1169
:1008F8003408F700C5300A128A112F200A128A110B
:1009080094300A128A114C210A128A11AE30F7006B
:100918008730F8000A128A1162210A128A113508F2
:10092800F7009A300A128A114F200A128A11D4301D
:100938000A128A114C210A128A111730F7008830DE
:10094800F8000A128A1162210A128A113308E82B68
:10095800831203132708003A031DBC2C2608013A0A
:1009680003198C2B033A0319F22B013A03194F2C64
:100978000A128A11F0240A128A11871CC82C0A123A
:100988008A116F200A128A110D30EF00A330EE0091
:10099800BD30ED00ED0BCE2CEE0BCE2CEF0BCE2C9C
:1009A80064002C2B003089250A128A11BD250A12F1
:1009B8008A11A1250A128A11013089250A128A1181
:1009C800023089250A128A11BD250A128A11A12529
:1009D8000A128A110330892D183089250A128A11C2
:1009E800BD250A128A11A1250A128A117608A300C8
:1009F8007508A200193089250A128A110313A20763
:100A08000318A30A1A3089250A128A110313A400AD
:100A1800A5011B3089250313A000A101080000309F
:100A280089250A128A11BD250A128A11A1250A12DE
:100A38008A117608A9007508A800013089250A12CC
:100A48008A110313A8070318A90A083089250A126E
:100A58008A11BD250A128A11A1250A128A1176085F
:100A6800AB007508AA000F3089250A128A110313F2
:100A7800AA070318AB0A103089250A128A11BD2566
:100A88000A128A11A1250A128A117608AD00750882
:100A9800AC00173089250A128A110313AC07031812
:100AA800AD0A023089250A128A11FA000A3089250E
:100AB8000A128A110313B100123089250A128A1109
:100AC8000313B400043089250A128A110313AE00F7
:100AD8000C3089250A128A110313B00014308925B5
:100AE8000A128A110313B300033089250A128A11E6
:100AF8000313AF000B3089250A128A110313B200C1
:100B0800133089250313B5000800F4006400831628
:100B180003178C188A2D740883128D003F308316B2
:100B28008C050C1403100C18031400300318013042
:100B3800F200F30183120C0808000313E001E1013D
:100B4800751CAD2D77080313E0070318E10A780830
:100B5800E1070310F70DF80D0310F60CF50C7608F5
:100B68007504031DA42D03136108F6006008F50041
:100B78000800F500F6016430F700F8010800F901F3
:100B8800FA0183132030840046300A128A11952610
:100B98000A128A1183163130A0004230A100303089
:100BA800A200A3003330A4004330A5003530A600CE
:100BB8004230A7004630A8004330A9003830AA00C8
:100BC8003130AB00AC018312C6004330C70030306F
:100BD800C800C9003830CA003230CB004330CC00DE
:100BE8004530CD003630CE003930CF003330D0001C
:100BF8003930D100D2013130D3004230D400303006
:100C0800D500D6003330D7004330D8003530D9006E
:100C18004230DA004630DB004330DC003830DD009B
:100C28003030DE00DF0183010A128A11052B7918A2
:100C38000800F501F6017508373E840037260A12C8
:100C48008A1183138000F50A0319F60A7608803A98
:100C5800FF0080307F02031D332E0C307502031C09
:100C68001F2E79140800F301831203130818382E75
:100C78005430F200F20B3E2E412EF401F40AA93052
:100C8800F200F20B452E482E83120313740808183D
:100C9800F3040310F40DF408031D432EA930F200E9
:100CA800F20B542E572E73080800F700612E7708B0
:100CB800F70A840080080319712E7208F20A84006A
:100CC80083130008F400770884000008F50074080E
:100CD8007502F600F60803195B2E7608F200F30198
:100CE800F21BF3030800FF3087008030831687006B
:100CF8002430980090308312980081308316990030
:100D080083129A01080003138814081483168810A4
:100D1800081483128814A930F200F20B912E942E35
:100D2800080064008001840A0406031900340406DC
:100D3800962E71088A0070088300FE0E7E0E090048
:100E0000FF1B0A2F83137F1883170008840A031916
:100E1000FF0A08007F087F398A000408840A031942
:100E2000FF0A8200303431343234333434343534D0
:100E3000363437343834393400346D346F346934EF
:100E4000733474346534723420346C3465347634DD
:100E500065346C3420346834693467346834203441
:100E60006D346F3474346534723420344F34463406
:100E7000463400346D346F346934733474346534FB
:100E8000723420346C346534763465346C342034F8
:100E90006C346F34773420346D346F34743465348B
:100EA000723420344F344E340034413454342B34B3
:100EB00043344D34473453343D3422342B343934A5
:100EC00031343934373439343034303438343034E0
:100ED00035343134303422340034533455344734CB
:100EE000413452343A3420342034203420344B34CA
:100EF000673420342034203420342034203420340B
:100F00002034203400344B34453452344F3453347D
:100F100045344E3445343A3420342034203420349F
:100F200020344C347434733420342034203420344E
:100F3000003452344934533445343A342034203464
:100F400020344B346734203420342034203420348F
:100F500020342034203420342034003453345534A9
:100F60004734413452343A342034203420344B3422
:100F7000673420342034203420342034203420348A
:100F80002034203400345534533445345234313411
:100F9000203441344D344F3455344E3454343A3483
:100FA00020342034203420342034203420340034C1
:100FB00055345334453452343234203441344D3472
:100FC0004F3455344E3454343A34203420342034A1
:100FD0002034203420342034003455345334453404
:100FE00052343334203441344D344F3455344E343C
:100FF00054343A3420342034203420342034203403
:101000002034003452344934533445343A34203493
:10101000203420342034203420344B3467342034BE
:1010200020342034203420342034203400344B3415
:10103000453452344F34533445344E3445343A34C5
:101040002034203420344C3474347334203420342D
:101050002034203420340034203420342034203410
:10106000533454344F3443344B34203444344534B3
:101070005434413449344C345334203420342034F3
:101080000034433472346F34703420346334723437
:101090006F3473347334653464342034733474348B
:1010A00061346734653431340034433472346F341E
:1010B00070342034633472346F3473347334653471
:1010C00064342034733474346134673465343234B6
:1010D0000034433472346F347034203463347234E7
:1010E0006F3473347334653464342034733474343B
:1010F00061346734653433340034413454342B3430
:1011000043344E344D3449343D3432342C3432344B
:101110002C3430342C3430342C3430340D3400340E
:1011200053344D34413452345434203443344134F4
:1011300052344434203420342034203420342034B9
:1011400020340034203420342034433441345234A9
:1011500044342034533459345334543445344D34A6
:10116000203420342034003450344C34453441345D
:1011700053344534203454344134503420345934B9
:101180004F345534523420342034003441345534F3
:1011900054344F344D34413454344934433420347E
:1011A00052344134543449344F344E3420340034B2
:1011B00050344C345334203457344134493454344B
:1011C0002E342E342E342E342E342E342E342E340F
:1011D0000034473453344D34203449344E34493488
:1011E0005434493441344C3449345A3449344E34FB
:1011F00047340034413454342B3443344D34473471
:1012000046343D3431340D340034413454342B34BD
:1012100043345334443448343D3431340D34003491
:10122000413454342B344334503449344E343F34F5
:101230000D340034473453344D3420345234453463
:101240004134443459340034413454340D3400347E
:02400E00E22CA2
:104200000A00000032000A00080000000000000060
:104210000A0000001E000800060000000000000068
:104220000A00000014000400050000000000000067
:104230000A000000FF00C800C800000000000000E5
:00000001FF
